{
	"contracts/Dbank.sol": {
		"Owner": {
			"abi": [
				{
					"inputs": [],
					"name": "Id",
					"outputs": [
						{
							"internalType": "uint256",
							"name": "",
							"type": "uint256"
						}
					],
					"stateMutability": "view",
					"type": "function"
				},
				{
					"inputs": [],
					"name": "checkBalance",
					"outputs": [
						{
							"internalType": "uint256",
							"name": "",
							"type": "uint256"
						}
					],
					"stateMutability": "view",
					"type": "function"
				},
				{
					"inputs": [],
					"name": "compound",
					"outputs": [],
					"stateMutability": "nonpayable",
					"type": "function"
				},
				{
					"inputs": [],
					"name": "currentValue",
					"outputs": [
						{
							"internalType": "uint256",
							"name": "",
							"type": "uint256"
						}
					],
					"stateMutability": "view",
					"type": "function"
				},
				{
					"inputs": [],
					"name": "storeCurrentTime",
					"outputs": [],
					"stateMutability": "nonpayable",
					"type": "function"
				},
				{
					"inputs": [],
					"name": "storeTime",
					"outputs": [
						{
							"internalType": "uint256",
							"name": "",
							"type": "uint256"
						}
					],
					"stateMutability": "view",
					"type": "function"
				},
				{
					"inputs": [],
					"name": "storedTime",
					"outputs": [
						{
							"internalType": "uint256",
							"name": "",
							"type": "uint256"
						}
					],
					"stateMutability": "view",
					"type": "function"
				},
				{
					"inputs": [
						{
							"internalType": "uint112",
							"name": "amount",
							"type": "uint112"
						}
					],
					"name": "topUp",
					"outputs": [],
					"stateMutability": "nonpayable",
					"type": "function"
				},
				{
					"inputs": [
						{
							"internalType": "uint112",
							"name": "amount",
							"type": "uint112"
						}
					],
					"name": "withDraw",
					"outputs": [],
					"stateMutability": "nonpayable",
					"type": "function"
				}
			],
			"devdoc": {
				"kind": "dev",
				"methods": {},
				"version": 1
			},
			"evm": {
				"assembly": "    /* \"contracts/Dbank.sol\":58:1085  contract Owner {... */\n  mstore(0x40, 0x80)\n    /* \"contracts/Dbank.sol\":109:112  300 */\n  0x012c\n    /* \"contracts/Dbank.sol\":79:112  uint256 public currentValue = 300 */\n  0x00\n  sstore\n    /* \"contracts/Dbank.sol\":199:209  2717186222 */\n  0xa1f4f8ae\n    /* \"contracts/Dbank.sol\":179:209  uint256 public Id = 2717186222 */\n  0x03\n  sstore\n    /* \"contracts/Dbank.sol\":58:1085  contract Owner {... */\n  callvalue\n  dup1\n  iszero\n  tag_1\n  jumpi\n  0x00\n  dup1\n  revert\ntag_1:\n  pop\n  dataSize(sub_0)\n  dup1\n  dataOffset(sub_0)\n  0x00\n  codecopy\n  0x00\n  return\nstop\n\nsub_0: assembly {\n        /* \"contracts/Dbank.sol\":58:1085  contract Owner {... */\n      mstore(0x40, 0x80)\n      callvalue\n      dup1\n      iszero\n      tag_1\n      jumpi\n      0x00\n      dup1\n      revert\n    tag_1:\n      pop\n      jumpi(tag_2, lt(calldatasize, 0x04))\n      shr(0xe0, calldataload(0x00))\n      dup1\n      0x7eada742\n      gt\n      tag_12\n      jumpi\n      dup1\n      0x7eada742\n      eq\n      tag_7\n      jumpi\n      dup1\n      0xc71daccb\n      eq\n      tag_8\n      jumpi\n      dup1\n      0xe4140397\n      eq\n      tag_9\n      jumpi\n      dup1\n      0xf69e2046\n      eq\n      tag_10\n      jumpi\n      dup1\n      0xff26b76b\n      eq\n      tag_11\n      jumpi\n      jump(tag_2)\n    tag_12:\n      dup1\n      0x0687371c\n      eq\n      tag_3\n      jumpi\n      dup1\n      0x32ebdb5f\n      eq\n      tag_4\n      jumpi\n      dup1\n      0x39a090c9\n      eq\n      tag_5\n      jumpi\n      dup1\n      0x698996f8\n      eq\n      tag_6\n      jumpi\n    tag_2:\n      0x00\n      dup1\n      revert\n        /* \"contracts/Dbank.sol\":118:143  uint256 public storedTime */\n    tag_3:\n      tag_13\n      tag_14\n      jump\t// in\n    tag_13:\n      mload(0x40)\n      tag_15\n      swap2\n      swap1\n      tag_16\n      jump\t// in\n    tag_15:\n      mload(0x40)\n      dup1\n      swap2\n      sub\n      swap1\n      return\n        /* \"contracts/Dbank.sol\":221:300  function storeCurrentTime() public {... */\n    tag_4:\n      tag_17\n      tag_18\n      jump\t// in\n    tag_17:\n      stop\n        /* \"contracts/Dbank.sol\":179:209  uint256 public Id = 2717186222 */\n    tag_5:\n      tag_19\n      tag_20\n      jump\t// in\n    tag_19:\n      mload(0x40)\n      tag_21\n      swap2\n      swap1\n      tag_16\n      jump\t// in\n    tag_21:\n      mload(0x40)\n      dup1\n      swap2\n      sub\n      swap1\n      return\n        /* \"contracts/Dbank.sol\":79:112  uint256 public currentValue = 300 */\n    tag_6:\n      tag_22\n      tag_23\n      jump\t// in\n    tag_22:\n      mload(0x40)\n      tag_24\n      swap2\n      swap1\n      tag_16\n      jump\t// in\n    tag_24:\n      mload(0x40)\n      dup1\n      swap2\n      sub\n      swap1\n      return\n        /* \"contracts/Dbank.sol\":311:388  function topUp(uint112 amount) public {... */\n    tag_7:\n      tag_25\n      0x04\n      dup1\n      calldatasize\n      sub\n      dup2\n      add\n      swap1\n      tag_26\n      swap2\n      swap1\n      tag_27\n      jump\t// in\n    tag_26:\n      tag_28\n      jump\t// in\n    tag_25:\n      stop\n        /* \"contracts/Dbank.sol\":581:671  function checkBalance() public view returns (uint256) {... */\n    tag_8:\n      tag_29\n      tag_30\n      jump\t// in\n    tag_29:\n      mload(0x40)\n      tag_31\n      swap2\n      swap1\n      tag_16\n      jump\t// in\n    tag_31:\n      mload(0x40)\n      dup1\n      swap2\n      sub\n      swap1\n      return\n        /* \"contracts/Dbank.sol\":149:173  uint256 public storeTime */\n    tag_9:\n      tag_32\n      tag_33\n      jump\t// in\n    tag_32:\n      mload(0x40)\n      tag_34\n      swap2\n      swap1\n      tag_16\n      jump\t// in\n    tag_34:\n      mload(0x40)\n      dup1\n      swap2\n      sub\n      swap1\n      return\n        /* \"contracts/Dbank.sol\":682:1083  function compound() public {... */\n    tag_10:\n      tag_35\n      tag_36\n      jump\t// in\n    tag_35:\n      stop\n        /* \"contracts/Dbank.sol\":399:570  function withDraw(uint112 amount) public {... */\n    tag_11:\n      tag_37\n      0x04\n      dup1\n      calldatasize\n      sub\n      dup2\n      add\n      swap1\n      tag_38\n      swap2\n      swap1\n      tag_27\n      jump\t// in\n    tag_38:\n      tag_39\n      jump\t// in\n    tag_37:\n      stop\n        /* \"contracts/Dbank.sol\":118:143  uint256 public storedTime */\n    tag_14:\n      sload(0x01)\n      dup2\n      jump\t// out\n        /* \"contracts/Dbank.sol\":221:300  function storeCurrentTime() public {... */\n    tag_18:\n        /* \"contracts/Dbank.sol\":278:293  block.timestamp */\n      timestamp\n        /* \"contracts/Dbank.sol\":266:275  storeTime */\n      0x02\n        /* \"contracts/Dbank.sol\":266:293  storeTime = block.timestamp */\n      dup2\n      swap1\n      sstore\n      pop\n        /* \"contracts/Dbank.sol\":221:300  function storeCurrentTime() public {... */\n      jump\t// out\n        /* \"contracts/Dbank.sol\":179:209  uint256 public Id = 2717186222 */\n    tag_20:\n      sload(0x03)\n      dup2\n      jump\t// out\n        /* \"contracts/Dbank.sol\":79:112  uint256 public currentValue = 300 */\n    tag_23:\n      sload(0x00)\n      dup2\n      jump\t// out\n        /* \"contracts/Dbank.sol\":311:388  function topUp(uint112 amount) public {... */\n    tag_28:\n        /* \"contracts/Dbank.sol\":375:381  amount */\n      dup1\n        /* \"contracts/Dbank.sol\":359:381  currentValue += amount */\n      0xffffffffffffffffffffffffffff\n      and\n        /* \"contracts/Dbank.sol\":359:371  currentValue */\n      0x00\n      dup1\n        /* \"contracts/Dbank.sol\":359:381  currentValue += amount */\n      dup3\n      dup3\n      sload\n      tag_42\n      swap2\n      swap1\n      tag_43\n      jump\t// in\n    tag_42:\n      swap3\n      pop\n      pop\n      dup2\n      swap1\n      sstore\n      pop\n        /* \"contracts/Dbank.sol\":311:388  function topUp(uint112 amount) public {... */\n      pop\n      jump\t// out\n        /* \"contracts/Dbank.sol\":581:671  function checkBalance() public view returns (uint256) {... */\n    tag_30:\n        /* \"contracts/Dbank.sol\":626:633  uint256 */\n      0x00\n        /* \"contracts/Dbank.sol\":652:664  currentValue */\n      dup1\n      sload\n        /* \"contracts/Dbank.sol\":645:664  return currentValue */\n      swap1\n      pop\n        /* \"contracts/Dbank.sol\":581:671  function checkBalance() public view returns (uint256) {... */\n      swap1\n      jump\t// out\n        /* \"contracts/Dbank.sol\":149:173  uint256 public storeTime */\n    tag_33:\n      sload(0x02)\n      dup2\n      jump\t// out\n        /* \"contracts/Dbank.sol\":682:1083  function compound() public {... */\n    tag_36:\n        /* \"contracts/Dbank.sol\":719:738  uint256 currentTime */\n      0x00\n        /* \"contracts/Dbank.sol\":741:756  block.timestamp */\n      timestamp\n        /* \"contracts/Dbank.sol\":719:756  uint256 currentTime = block.timestamp */\n      swap1\n      pop\n        /* \"contracts/Dbank.sol\":766:785  uint256 timeElapsed */\n      0x00\n        /* \"contracts/Dbank.sol\":802:811  storeTime */\n      sload(0x02)\n        /* \"contracts/Dbank.sol\":788:799  currentTime */\n      dup3\n        /* \"contracts/Dbank.sol\":788:811  currentTime - storeTime */\n      tag_46\n      swap2\n      swap1\n      tag_47\n      jump\t// in\n    tag_46:\n        /* \"contracts/Dbank.sol\":766:811  uint256 timeElapsed = currentTime - storeTime */\n      swap1\n      pop\n        /* \"contracts/Dbank.sol\":831:850  uint256 scaleFactor */\n      0x00\n        /* \"contracts/Dbank.sol\":853:858  10100 */\n      0x2774\n        /* \"contracts/Dbank.sol\":831:858  uint256 scaleFactor = 10100 */\n      swap1\n      pop\n        /* \"contracts/Dbank.sol\":868:885  uint256 scaleBase */\n      0x00\n        /* \"contracts/Dbank.sol\":888:893  10000 */\n      0x2710\n        /* \"contracts/Dbank.sol\":868:893  uint256 scaleBase = 10000 */\n      swap1\n      pop\n        /* \"contracts/Dbank.sol\":918:927  uint256 i */\n      0x00\n        /* \"contracts/Dbank.sol\":913:1035  for (uint256 i = 0; i < timeElapsed; i++) {... */\n    tag_48:\n        /* \"contracts/Dbank.sol\":937:948  timeElapsed */\n      dup4\n        /* \"contracts/Dbank.sol\":933:934  i */\n      dup2\n        /* \"contracts/Dbank.sol\":933:948  i < timeElapsed */\n      lt\n        /* \"contracts/Dbank.sol\":913:1035  for (uint256 i = 0; i < timeElapsed; i++) {... */\n      iszero\n      tag_49\n      jumpi\n        /* \"contracts/Dbank.sol\":1015:1024  scaleBase */\n      dup2\n        /* \"contracts/Dbank.sol\":1000:1011  scaleFactor */\n      dup4\n        /* \"contracts/Dbank.sol\":985:997  currentValue */\n      sload(0x00)\n        /* \"contracts/Dbank.sol\":985:1011  currentValue * scaleFactor */\n      tag_51\n      swap2\n      swap1\n      tag_52\n      jump\t// in\n    tag_51:\n        /* \"contracts/Dbank.sol\":984:1024  (currentValue * scaleFactor) / scaleBase */\n      tag_53\n      swap2\n      swap1\n      tag_54\n      jump\t// in\n    tag_53:\n        /* \"contracts/Dbank.sol\":969:981  currentValue */\n      0x00\n        /* \"contracts/Dbank.sol\":969:1024  currentValue = (currentValue * scaleFactor) / scaleBase */\n      dup2\n      swap1\n      sstore\n      pop\n        /* \"contracts/Dbank.sol\":950:953  i++ */\n      dup1\n      dup1\n      0x01\n      add\n      swap2\n      pop\n      pop\n        /* \"contracts/Dbank.sol\":913:1035  for (uint256 i = 0; i < timeElapsed; i++) {... */\n      jump(tag_48)\n    tag_49:\n      pop\n        /* \"contracts/Dbank.sol\":1065:1076  currentTime */\n      dup4\n        /* \"contracts/Dbank.sol\":1053:1062  storeTime */\n      0x02\n        /* \"contracts/Dbank.sol\":1053:1076  storeTime = currentTime */\n      dup2\n      swap1\n      sstore\n      pop\n        /* \"contracts/Dbank.sol\":709:1083  {... */\n      pop\n      pop\n      pop\n      pop\n        /* \"contracts/Dbank.sol\":682:1083  function compound() public {... */\n      jump\t// out\n        /* \"contracts/Dbank.sol\":399:570  function withDraw(uint112 amount) public {... */\n    tag_39:\n        /* \"contracts/Dbank.sol\":474:480  amount */\n      dup1\n        /* \"contracts/Dbank.sol\":458:480  currentValue >= amount */\n      0xffffffffffffffffffffffffffff\n      and\n        /* \"contracts/Dbank.sol\":458:470  currentValue */\n      sload(0x00)\n        /* \"contracts/Dbank.sol\":458:480  currentValue >= amount */\n      lt\n      iszero\n        /* \"contracts/Dbank.sol\":450:531  require(currentValue >= amount, \"Amount too large, currentValue less than zero.\") */\n      tag_56\n      jumpi\n      mload(0x40)\n      0x08c379a000000000000000000000000000000000000000000000000000000000\n      dup2\n      mstore\n      0x04\n      add\n      tag_57\n      swap1\n      tag_58\n      jump\t// in\n    tag_57:\n      mload(0x40)\n      dup1\n      swap2\n      sub\n      swap1\n      revert\n    tag_56:\n        /* \"contracts/Dbank.sol\":557:563  amount */\n      dup1\n        /* \"contracts/Dbank.sol\":541:563  currentValue -= amount */\n      0xffffffffffffffffffffffffffff\n      and\n        /* \"contracts/Dbank.sol\":541:553  currentValue */\n      0x00\n      dup1\n        /* \"contracts/Dbank.sol\":541:563  currentValue -= amount */\n      dup3\n      dup3\n      sload\n      tag_59\n      swap2\n      swap1\n      tag_47\n      jump\t// in\n    tag_59:\n      swap3\n      pop\n      pop\n      dup2\n      swap1\n      sstore\n      pop\n        /* \"contracts/Dbank.sol\":399:570  function withDraw(uint112 amount) public {... */\n      pop\n      jump\t// out\n        /* \"#utility.yul\":7:84   */\n    tag_60:\n        /* \"#utility.yul\":44:51   */\n      0x00\n        /* \"#utility.yul\":73:78   */\n      dup2\n        /* \"#utility.yul\":62:78   */\n      swap1\n      pop\n        /* \"#utility.yul\":7:84   */\n      swap2\n      swap1\n      pop\n      jump\t// out\n        /* \"#utility.yul\":90:208   */\n    tag_61:\n        /* \"#utility.yul\":177:201   */\n      tag_76\n        /* \"#utility.yul\":195:200   */\n      dup2\n        /* \"#utility.yul\":177:201   */\n      tag_60\n      jump\t// in\n    tag_76:\n        /* \"#utility.yul\":172:175   */\n      dup3\n        /* \"#utility.yul\":165:202   */\n      mstore\n        /* \"#utility.yul\":90:208   */\n      pop\n      pop\n      jump\t// out\n        /* \"#utility.yul\":214:436   */\n    tag_16:\n        /* \"#utility.yul\":307:311   */\n      0x00\n        /* \"#utility.yul\":345:347   */\n      0x20\n        /* \"#utility.yul\":334:343   */\n      dup3\n        /* \"#utility.yul\":330:348   */\n      add\n        /* \"#utility.yul\":322:348   */\n      swap1\n      pop\n        /* \"#utility.yul\":358:429   */\n      tag_78\n        /* \"#utility.yul\":426:427   */\n      0x00\n        /* \"#utility.yul\":415:424   */\n      dup4\n        /* \"#utility.yul\":411:428   */\n      add\n        /* \"#utility.yul\":402:408   */\n      dup5\n        /* \"#utility.yul\":358:429   */\n      tag_61\n      jump\t// in\n    tag_78:\n        /* \"#utility.yul\":214:436   */\n      swap3\n      swap2\n      pop\n      pop\n      jump\t// out\n        /* \"#utility.yul\":523:640   */\n    tag_63:\n        /* \"#utility.yul\":632:633   */\n      0x00\n        /* \"#utility.yul\":629:630   */\n      dup1\n        /* \"#utility.yul\":622:634   */\n      revert\n        /* \"#utility.yul\":769:883   */\n    tag_65:\n        /* \"#utility.yul\":806:813   */\n      0x00\n        /* \"#utility.yul\":846:876   */\n      0xffffffffffffffffffffffffffff\n        /* \"#utility.yul\":839:844   */\n      dup3\n        /* \"#utility.yul\":835:877   */\n      and\n        /* \"#utility.yul\":824:877   */\n      swap1\n      pop\n        /* \"#utility.yul\":769:883   */\n      swap2\n      swap1\n      pop\n      jump\t// out\n        /* \"#utility.yul\":889:1011   */\n    tag_66:\n        /* \"#utility.yul\":962:986   */\n      tag_84\n        /* \"#utility.yul\":980:985   */\n      dup2\n        /* \"#utility.yul\":962:986   */\n      tag_65\n      jump\t// in\n    tag_84:\n        /* \"#utility.yul\":955:960   */\n      dup2\n        /* \"#utility.yul\":952:987   */\n      eq\n        /* \"#utility.yul\":942:1005   */\n      tag_85\n      jumpi\n        /* \"#utility.yul\":1001:1002   */\n      0x00\n        /* \"#utility.yul\":998:999   */\n      dup1\n        /* \"#utility.yul\":991:1003   */\n      revert\n        /* \"#utility.yul\":942:1005   */\n    tag_85:\n        /* \"#utility.yul\":889:1011   */\n      pop\n      jump\t// out\n        /* \"#utility.yul\":1017:1156   */\n    tag_67:\n        /* \"#utility.yul\":1063:1068   */\n      0x00\n        /* \"#utility.yul\":1101:1107   */\n      dup2\n        /* \"#utility.yul\":1088:1108   */\n      calldataload\n        /* \"#utility.yul\":1079:1108   */\n      swap1\n      pop\n        /* \"#utility.yul\":1117:1150   */\n      tag_87\n        /* \"#utility.yul\":1144:1149   */\n      dup2\n        /* \"#utility.yul\":1117:1150   */\n      tag_66\n      jump\t// in\n    tag_87:\n        /* \"#utility.yul\":1017:1156   */\n      swap3\n      swap2\n      pop\n      pop\n      jump\t// out\n        /* \"#utility.yul\":1162:1491   */\n    tag_27:\n        /* \"#utility.yul\":1221:1227   */\n      0x00\n        /* \"#utility.yul\":1270:1272   */\n      0x20\n        /* \"#utility.yul\":1258:1267   */\n      dup3\n        /* \"#utility.yul\":1249:1256   */\n      dup5\n        /* \"#utility.yul\":1245:1268   */\n      sub\n        /* \"#utility.yul\":1241:1273   */\n      slt\n        /* \"#utility.yul\":1238:1357   */\n      iszero\n      tag_89\n      jumpi\n        /* \"#utility.yul\":1276:1355   */\n      tag_90\n      tag_63\n      jump\t// in\n    tag_90:\n        /* \"#utility.yul\":1238:1357   */\n    tag_89:\n        /* \"#utility.yul\":1396:1397   */\n      0x00\n        /* \"#utility.yul\":1421:1474   */\n      tag_91\n        /* \"#utility.yul\":1466:1473   */\n      dup5\n        /* \"#utility.yul\":1457:1463   */\n      dup3\n        /* \"#utility.yul\":1446:1455   */\n      dup6\n        /* \"#utility.yul\":1442:1464   */\n      add\n        /* \"#utility.yul\":1421:1474   */\n      tag_67\n      jump\t// in\n    tag_91:\n        /* \"#utility.yul\":1411:1474   */\n      swap2\n      pop\n        /* \"#utility.yul\":1367:1484   */\n      pop\n        /* \"#utility.yul\":1162:1491   */\n      swap3\n      swap2\n      pop\n      pop\n      jump\t// out\n        /* \"#utility.yul\":1497:1677   */\n    tag_68:\n        /* \"#utility.yul\":1545:1622   */\n      0x4e487b7100000000000000000000000000000000000000000000000000000000\n        /* \"#utility.yul\":1542:1543   */\n      0x00\n        /* \"#utility.yul\":1535:1623   */\n      mstore\n        /* \"#utility.yul\":1642:1646   */\n      0x11\n        /* \"#utility.yul\":1639:1640   */\n      0x04\n        /* \"#utility.yul\":1632:1647   */\n      mstore\n        /* \"#utility.yul\":1666:1670   */\n      0x24\n        /* \"#utility.yul\":1663:1664   */\n      0x00\n        /* \"#utility.yul\":1656:1671   */\n      revert\n        /* \"#utility.yul\":1683:1874   */\n    tag_43:\n        /* \"#utility.yul\":1723:1726   */\n      0x00\n        /* \"#utility.yul\":1742:1762   */\n      tag_94\n        /* \"#utility.yul\":1760:1761   */\n      dup3\n        /* \"#utility.yul\":1742:1762   */\n      tag_60\n      jump\t// in\n    tag_94:\n        /* \"#utility.yul\":1737:1762   */\n      swap2\n      pop\n        /* \"#utility.yul\":1776:1796   */\n      tag_95\n        /* \"#utility.yul\":1794:1795   */\n      dup4\n        /* \"#utility.yul\":1776:1796   */\n      tag_60\n      jump\t// in\n    tag_95:\n        /* \"#utility.yul\":1771:1796   */\n      swap3\n      pop\n        /* \"#utility.yul\":1819:1820   */\n      dup3\n        /* \"#utility.yul\":1816:1817   */\n      dup3\n        /* \"#utility.yul\":1812:1821   */\n      add\n        /* \"#utility.yul\":1805:1821   */\n      swap1\n      pop\n        /* \"#utility.yul\":1840:1843   */\n      dup1\n        /* \"#utility.yul\":1837:1838   */\n      dup3\n        /* \"#utility.yul\":1834:1844   */\n      gt\n        /* \"#utility.yul\":1831:1867   */\n      iszero\n      tag_96\n      jumpi\n        /* \"#utility.yul\":1847:1865   */\n      tag_97\n      tag_68\n      jump\t// in\n    tag_97:\n        /* \"#utility.yul\":1831:1867   */\n    tag_96:\n        /* \"#utility.yul\":1683:1874   */\n      swap3\n      swap2\n      pop\n      pop\n      jump\t// out\n        /* \"#utility.yul\":1880:2074   */\n    tag_47:\n        /* \"#utility.yul\":1920:1924   */\n      0x00\n        /* \"#utility.yul\":1940:1960   */\n      tag_99\n        /* \"#utility.yul\":1958:1959   */\n      dup3\n        /* \"#utility.yul\":1940:1960   */\n      tag_60\n      jump\t// in\n    tag_99:\n        /* \"#utility.yul\":1935:1960   */\n      swap2\n      pop\n        /* \"#utility.yul\":1974:1994   */\n      tag_100\n        /* \"#utility.yul\":1992:1993   */\n      dup4\n        /* \"#utility.yul\":1974:1994   */\n      tag_60\n      jump\t// in\n    tag_100:\n        /* \"#utility.yul\":1969:1994   */\n      swap3\n      pop\n        /* \"#utility.yul\":2018:2019   */\n      dup3\n        /* \"#utility.yul\":2015:2016   */\n      dup3\n        /* \"#utility.yul\":2011:2020   */\n      sub\n        /* \"#utility.yul\":2003:2020   */\n      swap1\n      pop\n        /* \"#utility.yul\":2042:2043   */\n      dup2\n        /* \"#utility.yul\":2036:2040   */\n      dup2\n        /* \"#utility.yul\":2033:2044   */\n      gt\n        /* \"#utility.yul\":2030:2067   */\n      iszero\n      tag_101\n      jumpi\n        /* \"#utility.yul\":2047:2065   */\n      tag_102\n      tag_68\n      jump\t// in\n    tag_102:\n        /* \"#utility.yul\":2030:2067   */\n    tag_101:\n        /* \"#utility.yul\":1880:2074   */\n      swap3\n      swap2\n      pop\n      pop\n      jump\t// out\n        /* \"#utility.yul\":2080:2490   */\n    tag_52:\n        /* \"#utility.yul\":2120:2127   */\n      0x00\n        /* \"#utility.yul\":2143:2163   */\n      tag_104\n        /* \"#utility.yul\":2161:2162   */\n      dup3\n        /* \"#utility.yul\":2143:2163   */\n      tag_60\n      jump\t// in\n    tag_104:\n        /* \"#utility.yul\":2138:2163   */\n      swap2\n      pop\n        /* \"#utility.yul\":2177:2197   */\n      tag_105\n        /* \"#utility.yul\":2195:2196   */\n      dup4\n        /* \"#utility.yul\":2177:2197   */\n      tag_60\n      jump\t// in\n    tag_105:\n        /* \"#utility.yul\":2172:2197   */\n      swap3\n      pop\n        /* \"#utility.yul\":2232:2233   */\n      dup3\n        /* \"#utility.yul\":2229:2230   */\n      dup3\n        /* \"#utility.yul\":2225:2234   */\n      mul\n        /* \"#utility.yul\":2254:2284   */\n      tag_106\n        /* \"#utility.yul\":2272:2283   */\n      dup2\n        /* \"#utility.yul\":2254:2284   */\n      tag_60\n      jump\t// in\n    tag_106:\n        /* \"#utility.yul\":2243:2284   */\n      swap2\n      pop\n        /* \"#utility.yul\":2433:2434   */\n      dup3\n        /* \"#utility.yul\":2424:2431   */\n      dup3\n        /* \"#utility.yul\":2420:2435   */\n      div\n        /* \"#utility.yul\":2417:2418   */\n      dup5\n        /* \"#utility.yul\":2414:2436   */\n      eq\n        /* \"#utility.yul\":2394:2395   */\n      dup4\n        /* \"#utility.yul\":2387:2396   */\n      iszero\n        /* \"#utility.yul\":2367:2450   */\n      or\n        /* \"#utility.yul\":2344:2483   */\n      tag_107\n      jumpi\n        /* \"#utility.yul\":2463:2481   */\n      tag_108\n      tag_68\n      jump\t// in\n    tag_108:\n        /* \"#utility.yul\":2344:2483   */\n    tag_107:\n        /* \"#utility.yul\":2128:2490   */\n      pop\n        /* \"#utility.yul\":2080:2490   */\n      swap3\n      swap2\n      pop\n      pop\n      jump\t// out\n        /* \"#utility.yul\":2496:2676   */\n    tag_69:\n        /* \"#utility.yul\":2544:2621   */\n      0x4e487b7100000000000000000000000000000000000000000000000000000000\n        /* \"#utility.yul\":2541:2542   */\n      0x00\n        /* \"#utility.yul\":2534:2622   */\n      mstore\n        /* \"#utility.yul\":2641:2645   */\n      0x12\n        /* \"#utility.yul\":2638:2639   */\n      0x04\n        /* \"#utility.yul\":2631:2646   */\n      mstore\n        /* \"#utility.yul\":2665:2669   */\n      0x24\n        /* \"#utility.yul\":2662:2663   */\n      0x00\n        /* \"#utility.yul\":2655:2670   */\n      revert\n        /* \"#utility.yul\":2682:2867   */\n    tag_54:\n        /* \"#utility.yul\":2722:2723   */\n      0x00\n        /* \"#utility.yul\":2739:2759   */\n      tag_111\n        /* \"#utility.yul\":2757:2758   */\n      dup3\n        /* \"#utility.yul\":2739:2759   */\n      tag_60\n      jump\t// in\n    tag_111:\n        /* \"#utility.yul\":2734:2759   */\n      swap2\n      pop\n        /* \"#utility.yul\":2773:2793   */\n      tag_112\n        /* \"#utility.yul\":2791:2792   */\n      dup4\n        /* \"#utility.yul\":2773:2793   */\n      tag_60\n      jump\t// in\n    tag_112:\n        /* \"#utility.yul\":2768:2793   */\n      swap3\n      pop\n        /* \"#utility.yul\":2812:2813   */\n      dup3\n        /* \"#utility.yul\":2802:2837   */\n      tag_113\n      jumpi\n        /* \"#utility.yul\":2817:2835   */\n      tag_114\n      tag_69\n      jump\t// in\n    tag_114:\n        /* \"#utility.yul\":2802:2837   */\n    tag_113:\n        /* \"#utility.yul\":2859:2860   */\n      dup3\n        /* \"#utility.yul\":2856:2857   */\n      dup3\n        /* \"#utility.yul\":2852:2861   */\n      div\n        /* \"#utility.yul\":2847:2861   */\n      swap1\n      pop\n        /* \"#utility.yul\":2682:2867   */\n      swap3\n      swap2\n      pop\n      pop\n      jump\t// out\n        /* \"#utility.yul\":2873:3042   */\n    tag_70:\n        /* \"#utility.yul\":2957:2968   */\n      0x00\n        /* \"#utility.yul\":2991:2997   */\n      dup3\n        /* \"#utility.yul\":2986:2989   */\n      dup3\n        /* \"#utility.yul\":2979:2998   */\n      mstore\n        /* \"#utility.yul\":3031:3035   */\n      0x20\n        /* \"#utility.yul\":3026:3029   */\n      dup3\n        /* \"#utility.yul\":3022:3036   */\n      add\n        /* \"#utility.yul\":3007:3036   */\n      swap1\n      pop\n        /* \"#utility.yul\":2873:3042   */\n      swap3\n      swap2\n      pop\n      pop\n      jump\t// out\n        /* \"#utility.yul\":3048:3281   */\n    tag_71:\n        /* \"#utility.yul\":3188:3222   */\n      0x416d6f756e7420746f6f206c617267652c2063757272656e7456616c7565206c\n        /* \"#utility.yul\":3184:3185   */\n      0x00\n        /* \"#utility.yul\":3176:3182   */\n      dup3\n        /* \"#utility.yul\":3172:3186   */\n      add\n        /* \"#utility.yul\":3165:3223   */\n      mstore\n        /* \"#utility.yul\":3257:3273   */\n      0x657373207468616e207a65726f2e000000000000000000000000000000000000\n        /* \"#utility.yul\":3252:3254   */\n      0x20\n        /* \"#utility.yul\":3244:3250   */\n      dup3\n        /* \"#utility.yul\":3240:3255   */\n      add\n        /* \"#utility.yul\":3233:3274   */\n      mstore\n        /* \"#utility.yul\":3048:3281   */\n      pop\n      jump\t// out\n        /* \"#utility.yul\":3287:3653   */\n    tag_72:\n        /* \"#utility.yul\":3429:3432   */\n      0x00\n        /* \"#utility.yul\":3450:3517   */\n      tag_118\n        /* \"#utility.yul\":3514:3516   */\n      0x2e\n        /* \"#utility.yul\":3509:3512   */\n      dup4\n        /* \"#utility.yul\":3450:3517   */\n      tag_70\n      jump\t// in\n    tag_118:\n        /* \"#utility.yul\":3443:3517   */\n      swap2\n      pop\n        /* \"#utility.yul\":3526:3619   */\n      tag_119\n        /* \"#utility.yul\":3615:3618   */\n      dup3\n        /* \"#utility.yul\":3526:3619   */\n      tag_71\n      jump\t// in\n    tag_119:\n        /* \"#utility.yul\":3644:3646   */\n      0x40\n        /* \"#utility.yul\":3639:3642   */\n      dup3\n        /* \"#utility.yul\":3635:3647   */\n      add\n        /* \"#utility.yul\":3628:3647   */\n      swap1\n      pop\n        /* \"#utility.yul\":3287:3653   */\n      swap2\n      swap1\n      pop\n      jump\t// out\n        /* \"#utility.yul\":3659:4078   */\n    tag_58:\n        /* \"#utility.yul\":3825:3829   */\n      0x00\n        /* \"#utility.yul\":3863:3865   */\n      0x20\n        /* \"#utility.yul\":3852:3861   */\n      dup3\n        /* \"#utility.yul\":3848:3866   */\n      add\n        /* \"#utility.yul\":3840:3866   */\n      swap1\n      pop\n        /* \"#utility.yul\":3912:3921   */\n      dup2\n        /* \"#utility.yul\":3906:3910   */\n      dup2\n        /* \"#utility.yul\":3902:3922   */\n      sub\n        /* \"#utility.yul\":3898:3899   */\n      0x00\n        /* \"#utility.yul\":3887:3896   */\n      dup4\n        /* \"#utility.yul\":3883:3900   */\n      add\n        /* \"#utility.yul\":3876:3923   */\n      mstore\n        /* \"#utility.yul\":3940:4071   */\n      tag_121\n        /* \"#utility.yul\":4066:4070   */\n      dup2\n        /* \"#utility.yul\":3940:4071   */\n      tag_72\n      jump\t// in\n    tag_121:\n        /* \"#utility.yul\":3932:4071   */\n      swap1\n      pop\n        /* \"#utility.yul\":3659:4078   */\n      swap2\n      swap1\n      pop\n      jump\t// out\n\n    auxdata: 0xa264697066735822122011829afe016ab606d63c60485227ba1e575c069fb7b0ded93e4d53af0fa206cd64736f6c634300081a0033\n}\n",
				"bytecode": {
					"linkReferences": {},
					"object": "608060405261012c5f5563a1f4f8ae600355348015601b575f80fd5b50610552806100295f395ff3fe608060405234801561000f575f80fd5b5060043610610091575f3560e01c80637eada742116100645780637eada742146100f9578063c71daccb14610115578063e414039714610133578063f69e204614610151578063ff26b76b1461015b57610091565b80630687371c1461009557806332ebdb5f146100b357806339a090c9146100bd578063698996f8146100db575b5f80fd5b61009d610177565b6040516100aa91906102c2565b60405180910390f35b6100bb61017d565b005b6100c5610186565b6040516100d291906102c2565b60405180910390f35b6100e361018c565b6040516100f091906102c2565b60405180910390f35b610113600480360381019061010e9190610322565b610191565b005b61011d6101bb565b60405161012a91906102c2565b60405180910390f35b61013b6101c3565b60405161014891906102c2565b60405180910390f35b6101596101c9565b005b61017560048036038101906101709190610322565b61022c565b005b60015481565b42600281905550565b60035481565b5f5481565b806dffffffffffffffffffffffffffff165f808282546101b1919061037a565b9250508190555050565b5f8054905090565b60025481565b5f4290505f600254826101dc91906103ad565b90505f61277490505f61271090505f5b8381101561021e5781835f5461020291906103e0565b61020c919061044e565b5f8190555080806001019150506101ec565b508360028190555050505050565b806dffffffffffffffffffffffffffff165f541015610280576040517f08c379a0000000000000000000000000000000000000000000000000000000008152600401610277906104fe565b60405180910390fd5b806dffffffffffffffffffffffffffff165f808282546102a091906103ad565b9250508190555050565b5f819050919050565b6102bc816102aa565b82525050565b5f6020820190506102d55f8301846102b3565b92915050565b5f80fd5b5f6dffffffffffffffffffffffffffff82169050919050565b610301816102df565b811461030b575f80fd5b50565b5f8135905061031c816102f8565b92915050565b5f60208284031215610337576103366102db565b5b5f6103448482850161030e565b91505092915050565b7f4e487b71000000000000000000000000000000000000000000000000000000005f52601160045260245ffd5b5f610384826102aa565b915061038f836102aa565b92508282019050808211156103a7576103a661034d565b5b92915050565b5f6103b7826102aa565b91506103c2836102aa565b92508282039050818111156103da576103d961034d565b5b92915050565b5f6103ea826102aa565b91506103f5836102aa565b9250828202610403816102aa565b9150828204841483151761041a5761041961034d565b5b5092915050565b7f4e487b71000000000000000000000000000000000000000000000000000000005f52601260045260245ffd5b5f610458826102aa565b9150610463836102aa565b92508261047357610472610421565b5b828204905092915050565b5f82825260208201905092915050565b7f416d6f756e7420746f6f206c617267652c2063757272656e7456616c7565206c5f8201527f657373207468616e207a65726f2e000000000000000000000000000000000000602082015250565b5f6104e8602e8361047e565b91506104f38261048e565b604082019050919050565b5f6020820190508181035f830152610515816104dc565b905091905056fea264697066735822122011829afe016ab606d63c60485227ba1e575c069fb7b0ded93e4d53af0fa206cd64736f6c634300081a0033",
					"opcodes": "PUSH1 0x80 PUSH1 0x40 MSTORE PUSH2 0x12C PUSH0 SSTORE PUSH4 0xA1F4F8AE PUSH1 0x3 SSTORE CALLVALUE DUP1 ISZERO PUSH1 0x1B JUMPI PUSH0 DUP1 REVERT JUMPDEST POP PUSH2 0x552 DUP1 PUSH2 0x29 PUSH0 CODECOPY PUSH0 RETURN INVALID PUSH1 0x80 PUSH1 0x40 MSTORE CALLVALUE DUP1 ISZERO PUSH2 0xF JUMPI PUSH0 DUP1 REVERT JUMPDEST POP PUSH1 0x4 CALLDATASIZE LT PUSH2 0x91 JUMPI PUSH0 CALLDATALOAD PUSH1 0xE0 SHR DUP1 PUSH4 0x7EADA742 GT PUSH2 0x64 JUMPI DUP1 PUSH4 0x7EADA742 EQ PUSH2 0xF9 JUMPI DUP1 PUSH4 0xC71DACCB EQ PUSH2 0x115 JUMPI DUP1 PUSH4 0xE4140397 EQ PUSH2 0x133 JUMPI DUP1 PUSH4 0xF69E2046 EQ PUSH2 0x151 JUMPI DUP1 PUSH4 0xFF26B76B EQ PUSH2 0x15B JUMPI PUSH2 0x91 JUMP JUMPDEST DUP1 PUSH4 0x687371C EQ PUSH2 0x95 JUMPI DUP1 PUSH4 0x32EBDB5F EQ PUSH2 0xB3 JUMPI DUP1 PUSH4 0x39A090C9 EQ PUSH2 0xBD JUMPI DUP1 PUSH4 0x698996F8 EQ PUSH2 0xDB JUMPI JUMPDEST PUSH0 DUP1 REVERT JUMPDEST PUSH2 0x9D PUSH2 0x177 JUMP JUMPDEST PUSH1 0x40 MLOAD PUSH2 0xAA SWAP2 SWAP1 PUSH2 0x2C2 JUMP JUMPDEST PUSH1 0x40 MLOAD DUP1 SWAP2 SUB SWAP1 RETURN JUMPDEST PUSH2 0xBB PUSH2 0x17D JUMP JUMPDEST STOP JUMPDEST PUSH2 0xC5 PUSH2 0x186 JUMP JUMPDEST PUSH1 0x40 MLOAD PUSH2 0xD2 SWAP2 SWAP1 PUSH2 0x2C2 JUMP JUMPDEST PUSH1 0x40 MLOAD DUP1 SWAP2 SUB SWAP1 RETURN JUMPDEST PUSH2 0xE3 PUSH2 0x18C JUMP JUMPDEST PUSH1 0x40 MLOAD PUSH2 0xF0 SWAP2 SWAP1 PUSH2 0x2C2 JUMP JUMPDEST PUSH1 0x40 MLOAD DUP1 SWAP2 SUB SWAP1 RETURN JUMPDEST PUSH2 0x113 PUSH1 0x4 DUP1 CALLDATASIZE SUB DUP2 ADD SWAP1 PUSH2 0x10E SWAP2 SWAP1 PUSH2 0x322 JUMP JUMPDEST PUSH2 0x191 JUMP JUMPDEST STOP JUMPDEST PUSH2 0x11D PUSH2 0x1BB JUMP JUMPDEST PUSH1 0x40 MLOAD PUSH2 0x12A SWAP2 SWAP1 PUSH2 0x2C2 JUMP JUMPDEST PUSH1 0x40 MLOAD DUP1 SWAP2 SUB SWAP1 RETURN JUMPDEST PUSH2 0x13B PUSH2 0x1C3 JUMP JUMPDEST PUSH1 0x40 MLOAD PUSH2 0x148 SWAP2 SWAP1 PUSH2 0x2C2 JUMP JUMPDEST PUSH1 0x40 MLOAD DUP1 SWAP2 SUB SWAP1 RETURN JUMPDEST PUSH2 0x159 PUSH2 0x1C9 JUMP JUMPDEST STOP JUMPDEST PUSH2 0x175 PUSH1 0x4 DUP1 CALLDATASIZE SUB DUP2 ADD SWAP1 PUSH2 0x170 SWAP2 SWAP1 PUSH2 0x322 JUMP JUMPDEST PUSH2 0x22C JUMP JUMPDEST STOP JUMPDEST PUSH1 0x1 SLOAD DUP2 JUMP JUMPDEST TIMESTAMP PUSH1 0x2 DUP2 SWAP1 SSTORE POP JUMP JUMPDEST PUSH1 0x3 SLOAD DUP2 JUMP JUMPDEST PUSH0 SLOAD DUP2 JUMP JUMPDEST DUP1 PUSH14 0xFFFFFFFFFFFFFFFFFFFFFFFFFFFF AND PUSH0 DUP1 DUP3 DUP3 SLOAD PUSH2 0x1B1 SWAP2 SWAP1 PUSH2 0x37A JUMP JUMPDEST SWAP3 POP POP DUP2 SWAP1 SSTORE POP POP JUMP JUMPDEST PUSH0 DUP1 SLOAD SWAP1 POP SWAP1 JUMP JUMPDEST PUSH1 0x2 SLOAD DUP2 JUMP JUMPDEST PUSH0 TIMESTAMP SWAP1 POP PUSH0 PUSH1 0x2 SLOAD DUP3 PUSH2 0x1DC SWAP2 SWAP1 PUSH2 0x3AD JUMP JUMPDEST SWAP1 POP PUSH0 PUSH2 0x2774 SWAP1 POP PUSH0 PUSH2 0x2710 SWAP1 POP PUSH0 JUMPDEST DUP4 DUP2 LT ISZERO PUSH2 0x21E JUMPI DUP2 DUP4 PUSH0 SLOAD PUSH2 0x202 SWAP2 SWAP1 PUSH2 0x3E0 JUMP JUMPDEST PUSH2 0x20C SWAP2 SWAP1 PUSH2 0x44E JUMP JUMPDEST PUSH0 DUP2 SWAP1 SSTORE POP DUP1 DUP1 PUSH1 0x1 ADD SWAP2 POP POP PUSH2 0x1EC JUMP JUMPDEST POP DUP4 PUSH1 0x2 DUP2 SWAP1 SSTORE POP POP POP POP POP JUMP JUMPDEST DUP1 PUSH14 0xFFFFFFFFFFFFFFFFFFFFFFFFFFFF AND PUSH0 SLOAD LT ISZERO PUSH2 0x280 JUMPI PUSH1 0x40 MLOAD PUSH32 0x8C379A000000000000000000000000000000000000000000000000000000000 DUP2 MSTORE PUSH1 0x4 ADD PUSH2 0x277 SWAP1 PUSH2 0x4FE JUMP JUMPDEST PUSH1 0x40 MLOAD DUP1 SWAP2 SUB SWAP1 REVERT JUMPDEST DUP1 PUSH14 0xFFFFFFFFFFFFFFFFFFFFFFFFFFFF AND PUSH0 DUP1 DUP3 DUP3 SLOAD PUSH2 0x2A0 SWAP2 SWAP1 PUSH2 0x3AD JUMP JUMPDEST SWAP3 POP POP DUP2 SWAP1 SSTORE POP POP JUMP JUMPDEST PUSH0 DUP2 SWAP1 POP SWAP2 SWAP1 POP JUMP JUMPDEST PUSH2 0x2BC DUP2 PUSH2 0x2AA JUMP JUMPDEST DUP3 MSTORE POP POP JUMP JUMPDEST PUSH0 PUSH1 0x20 DUP3 ADD SWAP1 POP PUSH2 0x2D5 PUSH0 DUP4 ADD DUP5 PUSH2 0x2B3 JUMP JUMPDEST SWAP3 SWAP2 POP POP JUMP JUMPDEST PUSH0 DUP1 REVERT JUMPDEST PUSH0 PUSH14 0xFFFFFFFFFFFFFFFFFFFFFFFFFFFF DUP3 AND SWAP1 POP SWAP2 SWAP1 POP JUMP JUMPDEST PUSH2 0x301 DUP2 PUSH2 0x2DF JUMP JUMPDEST DUP2 EQ PUSH2 0x30B JUMPI PUSH0 DUP1 REVERT JUMPDEST POP JUMP JUMPDEST PUSH0 DUP2 CALLDATALOAD SWAP1 POP PUSH2 0x31C DUP2 PUSH2 0x2F8 JUMP JUMPDEST SWAP3 SWAP2 POP POP JUMP JUMPDEST PUSH0 PUSH1 0x20 DUP3 DUP5 SUB SLT ISZERO PUSH2 0x337 JUMPI PUSH2 0x336 PUSH2 0x2DB JUMP JUMPDEST JUMPDEST PUSH0 PUSH2 0x344 DUP5 DUP3 DUP6 ADD PUSH2 0x30E JUMP JUMPDEST SWAP2 POP POP SWAP3 SWAP2 POP POP JUMP JUMPDEST PUSH32 0x4E487B7100000000000000000000000000000000000000000000000000000000 PUSH0 MSTORE PUSH1 0x11 PUSH1 0x4 MSTORE PUSH1 0x24 PUSH0 REVERT JUMPDEST PUSH0 PUSH2 0x384 DUP3 PUSH2 0x2AA JUMP JUMPDEST SWAP2 POP PUSH2 0x38F DUP4 PUSH2 0x2AA JUMP JUMPDEST SWAP3 POP DUP3 DUP3 ADD SWAP1 POP DUP1 DUP3 GT ISZERO PUSH2 0x3A7 JUMPI PUSH2 0x3A6 PUSH2 0x34D JUMP JUMPDEST JUMPDEST SWAP3 SWAP2 POP POP JUMP JUMPDEST PUSH0 PUSH2 0x3B7 DUP3 PUSH2 0x2AA JUMP JUMPDEST SWAP2 POP PUSH2 0x3C2 DUP4 PUSH2 0x2AA JUMP JUMPDEST SWAP3 POP DUP3 DUP3 SUB SWAP1 POP DUP2 DUP2 GT ISZERO PUSH2 0x3DA JUMPI PUSH2 0x3D9 PUSH2 0x34D JUMP JUMPDEST JUMPDEST SWAP3 SWAP2 POP POP JUMP JUMPDEST PUSH0 PUSH2 0x3EA DUP3 PUSH2 0x2AA JUMP JUMPDEST SWAP2 POP PUSH2 0x3F5 DUP4 PUSH2 0x2AA JUMP JUMPDEST SWAP3 POP DUP3 DUP3 MUL PUSH2 0x403 DUP2 PUSH2 0x2AA JUMP JUMPDEST SWAP2 POP DUP3 DUP3 DIV DUP5 EQ DUP4 ISZERO OR PUSH2 0x41A JUMPI PUSH2 0x419 PUSH2 0x34D JUMP JUMPDEST JUMPDEST POP SWAP3 SWAP2 POP POP JUMP JUMPDEST PUSH32 0x4E487B7100000000000000000000000000000000000000000000000000000000 PUSH0 MSTORE PUSH1 0x12 PUSH1 0x4 MSTORE PUSH1 0x24 PUSH0 REVERT JUMPDEST PUSH0 PUSH2 0x458 DUP3 PUSH2 0x2AA JUMP JUMPDEST SWAP2 POP PUSH2 0x463 DUP4 PUSH2 0x2AA JUMP JUMPDEST SWAP3 POP DUP3 PUSH2 0x473 JUMPI PUSH2 0x472 PUSH2 0x421 JUMP JUMPDEST JUMPDEST DUP3 DUP3 DIV SWAP1 POP SWAP3 SWAP2 POP POP JUMP JUMPDEST PUSH0 DUP3 DUP3 MSTORE PUSH1 0x20 DUP3 ADD SWAP1 POP SWAP3 SWAP2 POP POP JUMP JUMPDEST PUSH32 0x416D6F756E7420746F6F206C617267652C2063757272656E7456616C7565206C PUSH0 DUP3 ADD MSTORE PUSH32 0x657373207468616E207A65726F2E000000000000000000000000000000000000 PUSH1 0x20 DUP3 ADD MSTORE POP JUMP JUMPDEST PUSH0 PUSH2 0x4E8 PUSH1 0x2E DUP4 PUSH2 0x47E JUMP JUMPDEST SWAP2 POP PUSH2 0x4F3 DUP3 PUSH2 0x48E JUMP JUMPDEST PUSH1 0x40 DUP3 ADD SWAP1 POP SWAP2 SWAP1 POP JUMP JUMPDEST PUSH0 PUSH1 0x20 DUP3 ADD SWAP1 POP DUP2 DUP2 SUB PUSH0 DUP4 ADD MSTORE PUSH2 0x515 DUP2 PUSH2 0x4DC JUMP JUMPDEST SWAP1 POP SWAP2 SWAP1 POP JUMP INVALID LOG2 PUSH5 0x6970667358 0x22 SLT KECCAK256 GT DUP3 SWAP11 INVALID ADD PUSH11 0xB606D63C60485227BA1E57 TLOAD MOD SWAP16 0xB7 0xB0 0xDE 0xD9 RETURNDATACOPY 0x4D MSTORE8 0xAF 0xF LOG2 MOD 0xCD PUSH5 0x736F6C6343 STOP ADDMOD BYTE STOP CALLER "
				},
				"gasEstimates": {
					"creation": {
						"codeDepositCost": "272400",
						"executionCost": "44521",
						"totalCost": "316921"
					},
					"external": {
						"Id()": "2470",
						"checkBalance()": "2454",
						"compound()": "infinite",
						"currentValue()": "2491",
						"storeCurrentTime()": "22279",
						"storeTime()": "2469",
						"storedTime()": "2426",
						"topUp(uint112)": "infinite",
						"withDraw(uint112)": "infinite"
					}
				},
				"methodIdentifiers": {
					"Id()": "39a090c9",
					"checkBalance()": "c71daccb",
					"compound()": "f69e2046",
					"currentValue()": "698996f8",
					"storeCurrentTime()": "32ebdb5f",
					"storeTime()": "e4140397",
					"storedTime()": "0687371c",
					"topUp(uint112)": "7eada742",
					"withDraw(uint112)": "ff26b76b"
				}
			},
			"storageLayout": {
				"storage": [
					{
						"astId": 4,
						"contract": "contracts/Dbank.sol:Owner",
						"label": "currentValue",
						"offset": 0,
						"slot": "0",
						"type": "t_uint256"
					},
					{
						"astId": 6,
						"contract": "contracts/Dbank.sol:Owner",
						"label": "storedTime",
						"offset": 0,
						"slot": "1",
						"type": "t_uint256"
					},
					{
						"astId": 8,
						"contract": "contracts/Dbank.sol:Owner",
						"label": "storeTime",
						"offset": 0,
						"slot": "2",
						"type": "t_uint256"
					},
					{
						"astId": 11,
						"contract": "contracts/Dbank.sol:Owner",
						"label": "Id",
						"offset": 0,
						"slot": "3",
						"type": "t_uint256"
					}
				],
				"types": {
					"t_uint256": {
						"encoding": "inplace",
						"label": "uint256",
						"numberOfBytes": "32"
					}
				}
			},
			"userdoc": {
				"kind": "user",
				"methods": {},
				"version": 1
			}
		}
	}
}