{
	"contracts/Balance,sol.sol": {
		"Owner": {
			"abi": [
				{
					"inputs": [],
					"stateMutability": "nonpayable",
					"type": "constructor"
				},
				{
					"inputs": [],
					"name": "Id",
					"outputs": [
						{
							"internalType": "uint256",
							"name": "",
							"type": "uint256"
						}
					],
					"stateMutability": "view",
					"type": "function"
				},
				{
					"inputs": [],
					"name": "checkBalance",
					"outputs": [
						{
							"internalType": "uint256",
							"name": "",
							"type": "uint256"
						}
					],
					"stateMutability": "view",
					"type": "function"
				},
				{
					"inputs": [],
					"name": "compound",
					"outputs": [],
					"stateMutability": "nonpayable",
					"type": "function"
				},
				{
					"inputs": [],
					"name": "currentValue",
					"outputs": [
						{
							"internalType": "uint256",
							"name": "",
							"type": "uint256"
						}
					],
					"stateMutability": "view",
					"type": "function"
				},
				{
					"inputs": [],
					"name": "scaleBase",
					"outputs": [
						{
							"internalType": "uint256",
							"name": "",
							"type": "uint256"
						}
					],
					"stateMutability": "view",
					"type": "function"
				},
				{
					"inputs": [],
					"name": "scaleFactor",
					"outputs": [
						{
							"internalType": "uint256",
							"name": "",
							"type": "uint256"
						}
					],
					"stateMutability": "view",
					"type": "function"
				},
				{
					"inputs": [],
					"name": "storeCurrentTime",
					"outputs": [],
					"stateMutability": "nonpayable",
					"type": "function"
				},
				{
					"inputs": [],
					"name": "storeTime",
					"outputs": [
						{
							"internalType": "uint256",
							"name": "",
							"type": "uint256"
						}
					],
					"stateMutability": "view",
					"type": "function"
				},
				{
					"inputs": [
						{
							"internalType": "uint112",
							"name": "amount",
							"type": "uint112"
						}
					],
					"name": "topUp",
					"outputs": [],
					"stateMutability": "nonpayable",
					"type": "function"
				},
				{
					"inputs": [
						{
							"internalType": "uint112",
							"name": "amount",
							"type": "uint112"
						}
					],
					"name": "withDraw",
					"outputs": [],
					"stateMutability": "nonpayable",
					"type": "function"
				}
			],
			"devdoc": {
				"kind": "dev",
				"methods": {},
				"version": 1
			},
			"evm": {
				"assembly": "    /* \"contracts/Balance,sol.sol\":58:1116  contract Owner {... */\n  mstore(0x40, 0x80)\n    /* \"contracts/Balance,sol.sol\":109:112  300 */\n  0x012c\n    /* \"contracts/Balance,sol.sol\":79:112  uint256 public currentValue = 300 */\n  0x00\n  sstore\n    /* \"contracts/Balance,sol.sol\":168:178  2717186222 */\n  0xa1f4f8ae\n    /* \"contracts/Balance,sol.sol\":148:178  uint256 public Id = 2717186222 */\n  0x02\n  sstore\n    /* \"contracts/Balance,sol.sol\":218:221  101 */\n  0x65\n    /* \"contracts/Balance,sol.sol\":189:221  uint256 public scaleFactor = 101 */\n  0x03\n  sstore\n    /* \"contracts/Balance,sol.sol\":255:258  100 */\n  0x64\n    /* \"contracts/Balance,sol.sol\":228:258  uint256 public scaleBase = 100 */\n  0x04\n  sstore\n    /* \"contracts/Balance,sol.sol\":265:323  constructor() {... */\n  callvalue\n  dup1\n  iszero\n  tag_1\n  jumpi\n  0x00\n  dup1\n  revert\ntag_1:\n  pop\n    /* \"contracts/Balance,sol.sol\":301:316  block.timestamp */\n  timestamp\n    /* \"contracts/Balance,sol.sol\":289:298  storeTime */\n  0x01\n    /* \"contracts/Balance,sol.sol\":289:316  storeTime = block.timestamp */\n  dup2\n  swap1\n  sstore\n  pop\n    /* \"contracts/Balance,sol.sol\":58:1116  contract Owner {... */\n  dataSize(sub_0)\n  dup1\n  dataOffset(sub_0)\n  0x00\n  codecopy\n  0x00\n  return\nstop\n\nsub_0: assembly {\n        /* \"contracts/Balance,sol.sol\":58:1116  contract Owner {... */\n      mstore(0x40, 0x80)\n      callvalue\n      dup1\n      iszero\n      tag_1\n      jumpi\n      0x00\n      dup1\n      revert\n    tag_1:\n      pop\n      jumpi(tag_2, lt(calldatasize, 0x04))\n      shr(0xe0, calldataload(0x00))\n      dup1\n      0x7eada742\n      gt\n      tag_13\n      jumpi\n      dup1\n      0x7eada742\n      eq\n      tag_8\n      jumpi\n      dup1\n      0xc71daccb\n      eq\n      tag_9\n      jumpi\n      dup1\n      0xe4140397\n      eq\n      tag_10\n      jumpi\n      dup1\n      0xf69e2046\n      eq\n      tag_11\n      jumpi\n      dup1\n      0xff26b76b\n      eq\n      tag_12\n      jumpi\n      jump(tag_2)\n    tag_13:\n      dup1\n      0x32ebdb5f\n      eq\n      tag_3\n      jumpi\n      dup1\n      0x39a090c9\n      eq\n      tag_4\n      jumpi\n      dup1\n      0x683dd191\n      eq\n      tag_5\n      jumpi\n      dup1\n      0x698996f8\n      eq\n      tag_6\n      jumpi\n      dup1\n      0x6f543c83\n      eq\n      tag_7\n      jumpi\n    tag_2:\n      0x00\n      dup1\n      revert\n        /* \"contracts/Balance,sol.sol\":330:409  function storeCurrentTime() public {... */\n    tag_3:\n      tag_14\n      tag_15\n      jump\t// in\n    tag_14:\n      stop\n        /* \"contracts/Balance,sol.sol\":148:178  uint256 public Id = 2717186222 */\n    tag_4:\n      tag_16\n      tag_17\n      jump\t// in\n    tag_16:\n      mload(0x40)\n      tag_18\n      swap2\n      swap1\n      tag_19\n      jump\t// in\n    tag_18:\n      mload(0x40)\n      dup1\n      swap2\n      sub\n      swap1\n      return\n        /* \"contracts/Balance,sol.sol\":189:221  uint256 public scaleFactor = 101 */\n    tag_5:\n      tag_20\n      tag_21\n      jump\t// in\n    tag_20:\n      mload(0x40)\n      tag_22\n      swap2\n      swap1\n      tag_19\n      jump\t// in\n    tag_22:\n      mload(0x40)\n      dup1\n      swap2\n      sub\n      swap1\n      return\n        /* \"contracts/Balance,sol.sol\":79:112  uint256 public currentValue = 300 */\n    tag_6:\n      tag_23\n      tag_24\n      jump\t// in\n    tag_23:\n      mload(0x40)\n      tag_25\n      swap2\n      swap1\n      tag_19\n      jump\t// in\n    tag_25:\n      mload(0x40)\n      dup1\n      swap2\n      sub\n      swap1\n      return\n        /* \"contracts/Balance,sol.sol\":228:258  uint256 public scaleBase = 100 */\n    tag_7:\n      tag_26\n      tag_27\n      jump\t// in\n    tag_26:\n      mload(0x40)\n      tag_28\n      swap2\n      swap1\n      tag_19\n      jump\t// in\n    tag_28:\n      mload(0x40)\n      dup1\n      swap2\n      sub\n      swap1\n      return\n        /* \"contracts/Balance,sol.sol\":415:492  function topUp(uint112 amount) public {... */\n    tag_8:\n      tag_29\n      0x04\n      dup1\n      calldatasize\n      sub\n      dup2\n      add\n      swap1\n      tag_30\n      swap2\n      swap1\n      tag_31\n      jump\t// in\n    tag_30:\n      tag_32\n      jump\t// in\n    tag_29:\n      stop\n        /* \"contracts/Balance,sol.sol\":678:768  function checkBalance() public view returns (uint256) {... */\n    tag_9:\n      tag_33\n      tag_34\n      jump\t// in\n    tag_33:\n      mload(0x40)\n      tag_35\n      swap2\n      swap1\n      tag_19\n      jump\t// in\n    tag_35:\n      mload(0x40)\n      dup1\n      swap2\n      sub\n      swap1\n      return\n        /* \"contracts/Balance,sol.sol\":118:142  uint256 public storeTime */\n    tag_10:\n      tag_36\n      tag_37\n      jump\t// in\n    tag_36:\n      mload(0x40)\n      tag_38\n      swap2\n      swap1\n      tag_19\n      jump\t// in\n    tag_38:\n      mload(0x40)\n      dup1\n      swap2\n      sub\n      swap1\n      return\n        /* \"contracts/Balance,sol.sol\":775:1114  function compound() public {... */\n    tag_11:\n      tag_39\n      tag_40\n      jump\t// in\n    tag_39:\n      stop\n        /* \"contracts/Balance,sol.sol\":500:671  function withDraw(uint112 amount) public {... */\n    tag_12:\n      tag_41\n      0x04\n      dup1\n      calldatasize\n      sub\n      dup2\n      add\n      swap1\n      tag_42\n      swap2\n      swap1\n      tag_31\n      jump\t// in\n    tag_42:\n      tag_43\n      jump\t// in\n    tag_41:\n      stop\n        /* \"contracts/Balance,sol.sol\":330:409  function storeCurrentTime() public {... */\n    tag_15:\n        /* \"contracts/Balance,sol.sol\":387:402  block.timestamp */\n      timestamp\n        /* \"contracts/Balance,sol.sol\":375:384  storeTime */\n      0x01\n        /* \"contracts/Balance,sol.sol\":375:402  storeTime = block.timestamp */\n      dup2\n      swap1\n      sstore\n      pop\n        /* \"contracts/Balance,sol.sol\":330:409  function storeCurrentTime() public {... */\n      jump\t// out\n        /* \"contracts/Balance,sol.sol\":148:178  uint256 public Id = 2717186222 */\n    tag_17:\n      sload(0x02)\n      dup2\n      jump\t// out\n        /* \"contracts/Balance,sol.sol\":189:221  uint256 public scaleFactor = 101 */\n    tag_21:\n      sload(0x03)\n      dup2\n      jump\t// out\n        /* \"contracts/Balance,sol.sol\":79:112  uint256 public currentValue = 300 */\n    tag_24:\n      sload(0x00)\n      dup2\n      jump\t// out\n        /* \"contracts/Balance,sol.sol\":228:258  uint256 public scaleBase = 100 */\n    tag_27:\n      sload(0x04)\n      dup2\n      jump\t// out\n        /* \"contracts/Balance,sol.sol\":415:492  function topUp(uint112 amount) public {... */\n    tag_32:\n        /* \"contracts/Balance,sol.sol\":479:485  amount */\n      dup1\n        /* \"contracts/Balance,sol.sol\":463:485  currentValue += amount */\n      0xffffffffffffffffffffffffffff\n      and\n        /* \"contracts/Balance,sol.sol\":463:475  currentValue */\n      0x00\n      dup1\n        /* \"contracts/Balance,sol.sol\":463:485  currentValue += amount */\n      dup3\n      dup3\n      sload\n      tag_46\n      swap2\n      swap1\n      tag_47\n      jump\t// in\n    tag_46:\n      swap3\n      pop\n      pop\n      dup2\n      swap1\n      sstore\n      pop\n        /* \"contracts/Balance,sol.sol\":415:492  function topUp(uint112 amount) public {... */\n      pop\n      jump\t// out\n        /* \"contracts/Balance,sol.sol\":678:768  function checkBalance() public view returns (uint256) {... */\n    tag_34:\n        /* \"contracts/Balance,sol.sol\":723:730  uint256 */\n      0x00\n        /* \"contracts/Balance,sol.sol\":749:761  currentValue */\n      dup1\n      sload\n        /* \"contracts/Balance,sol.sol\":742:761  return currentValue */\n      swap1\n      pop\n        /* \"contracts/Balance,sol.sol\":678:768  function checkBalance() public view returns (uint256) {... */\n      swap1\n      jump\t// out\n        /* \"contracts/Balance,sol.sol\":118:142  uint256 public storeTime */\n    tag_37:\n      sload(0x01)\n      dup2\n      jump\t// out\n        /* \"contracts/Balance,sol.sol\":775:1114  function compound() public {... */\n    tag_40:\n        /* \"contracts/Balance,sol.sol\":812:831  uint256 currentTime */\n      0x00\n        /* \"contracts/Balance,sol.sol\":834:849  block.timestamp */\n      timestamp\n        /* \"contracts/Balance,sol.sol\":812:849  uint256 currentTime = block.timestamp */\n      swap1\n      pop\n        /* \"contracts/Balance,sol.sol\":859:878  uint256 timeElapsed */\n      0x00\n        /* \"contracts/Balance,sol.sol\":895:904  storeTime */\n      sload(0x01)\n        /* \"contracts/Balance,sol.sol\":881:892  currentTime */\n      dup3\n        /* \"contracts/Balance,sol.sol\":881:904  currentTime - storeTime */\n      tag_50\n      swap2\n      swap1\n      tag_51\n      jump\t// in\n    tag_50:\n        /* \"contracts/Balance,sol.sol\":859:904  uint256 timeElapsed = currentTime - storeTime */\n      swap1\n      pop\n        /* \"contracts/Balance,sol.sol\":919:937  uint256 multiplier */\n      0x00\n        /* \"contracts/Balance,sol.sol\":1000:1001  1 */\n      0x01\n        /* \"contracts/Balance,sol.sol\":986:997  timeElapsed */\n      dup3\n        /* \"contracts/Balance,sol.sol\":986:1001  timeElapsed - 1 */\n      tag_52\n      swap2\n      swap1\n      tag_51\n      jump\t// in\n    tag_52:\n        /* \"contracts/Balance,sol.sol\":972:981  scaleBase */\n      sload(0x04)\n        /* \"contracts/Balance,sol.sol\":972:1002  scaleBase ** (timeElapsed - 1) */\n      tag_53\n      swap2\n      swap1\n      tag_54\n      jump\t// in\n    tag_53:\n        /* \"contracts/Balance,sol.sol\":956:967  timeElapsed */\n      dup3\n        /* \"contracts/Balance,sol.sol\":941:952  scaleFactor */\n      sload(0x03)\n        /* \"contracts/Balance,sol.sol\":941:967  scaleFactor ** timeElapsed */\n      tag_55\n      swap2\n      swap1\n      tag_54\n      jump\t// in\n    tag_55:\n        /* \"contracts/Balance,sol.sol\":940:1003  (scaleFactor ** timeElapsed) / (scaleBase ** (timeElapsed - 1)) */\n      tag_56\n      swap2\n      swap1\n      tag_57\n      jump\t// in\n    tag_56:\n        /* \"contracts/Balance,sol.sol\":919:1003  uint256 multiplier = (scaleFactor ** timeElapsed) / (scaleBase ** (timeElapsed - 1)) */\n      swap1\n      pop\n        /* \"contracts/Balance,sol.sol\":1058:1067  scaleBase */\n      sload(0x04)\n        /* \"contracts/Balance,sol.sol\":1044:1054  multiplier */\n      dup2\n        /* \"contracts/Balance,sol.sol\":1029:1041  currentValue */\n      sload(0x00)\n        /* \"contracts/Balance,sol.sol\":1029:1054  currentValue * multiplier */\n      tag_58\n      swap2\n      swap1\n      tag_59\n      jump\t// in\n    tag_58:\n        /* \"contracts/Balance,sol.sol\":1028:1067  (currentValue * multiplier) / scaleBase */\n      tag_60\n      swap2\n      swap1\n      tag_57\n      jump\t// in\n    tag_60:\n        /* \"contracts/Balance,sol.sol\":1013:1025  currentValue */\n      0x00\n        /* \"contracts/Balance,sol.sol\":1013:1067  currentValue = (currentValue * multiplier) / scaleBase */\n      dup2\n      swap1\n      sstore\n      pop\n        /* \"contracts/Balance,sol.sol\":1096:1107  currentTime */\n      dup3\n        /* \"contracts/Balance,sol.sol\":1084:1093  storeTime */\n      0x01\n        /* \"contracts/Balance,sol.sol\":1084:1107  storeTime = currentTime */\n      dup2\n      swap1\n      sstore\n      pop\n        /* \"contracts/Balance,sol.sol\":802:1114  {... */\n      pop\n      pop\n      pop\n        /* \"contracts/Balance,sol.sol\":775:1114  function compound() public {... */\n      jump\t// out\n        /* \"contracts/Balance,sol.sol\":500:671  function withDraw(uint112 amount) public {... */\n    tag_43:\n        /* \"contracts/Balance,sol.sol\":575:581  amount */\n      dup1\n        /* \"contracts/Balance,sol.sol\":559:581  currentValue >= amount */\n      0xffffffffffffffffffffffffffff\n      and\n        /* \"contracts/Balance,sol.sol\":559:571  currentValue */\n      sload(0x00)\n        /* \"contracts/Balance,sol.sol\":559:581  currentValue >= amount */\n      lt\n      iszero\n        /* \"contracts/Balance,sol.sol\":551:632  require(currentValue >= amount, \"Amount too large, currentValue less than zero.\") */\n      tag_62\n      jumpi\n      mload(0x40)\n      0x08c379a000000000000000000000000000000000000000000000000000000000\n      dup2\n      mstore\n      0x04\n      add\n      tag_63\n      swap1\n      tag_64\n      jump\t// in\n    tag_63:\n      mload(0x40)\n      dup1\n      swap2\n      sub\n      swap1\n      revert\n    tag_62:\n        /* \"contracts/Balance,sol.sol\":658:664  amount */\n      dup1\n        /* \"contracts/Balance,sol.sol\":642:664  currentValue -= amount */\n      0xffffffffffffffffffffffffffff\n      and\n        /* \"contracts/Balance,sol.sol\":642:654  currentValue */\n      0x00\n      dup1\n        /* \"contracts/Balance,sol.sol\":642:664  currentValue -= amount */\n      dup3\n      dup3\n      sload\n      tag_65\n      swap2\n      swap1\n      tag_51\n      jump\t// in\n    tag_65:\n      swap3\n      pop\n      pop\n      dup2\n      swap1\n      sstore\n      pop\n        /* \"contracts/Balance,sol.sol\":500:671  function withDraw(uint112 amount) public {... */\n      pop\n      jump\t// out\n        /* \"#utility.yul\":7:84   */\n    tag_66:\n        /* \"#utility.yul\":44:51   */\n      0x00\n        /* \"#utility.yul\":73:78   */\n      dup2\n        /* \"#utility.yul\":62:78   */\n      swap1\n      pop\n        /* \"#utility.yul\":7:84   */\n      swap2\n      swap1\n      pop\n      jump\t// out\n        /* \"#utility.yul\":90:208   */\n    tag_67:\n        /* \"#utility.yul\":177:201   */\n      tag_85\n        /* \"#utility.yul\":195:200   */\n      dup2\n        /* \"#utility.yul\":177:201   */\n      tag_66\n      jump\t// in\n    tag_85:\n        /* \"#utility.yul\":172:175   */\n      dup3\n        /* \"#utility.yul\":165:202   */\n      mstore\n        /* \"#utility.yul\":90:208   */\n      pop\n      pop\n      jump\t// out\n        /* \"#utility.yul\":214:436   */\n    tag_19:\n        /* \"#utility.yul\":307:311   */\n      0x00\n        /* \"#utility.yul\":345:347   */\n      0x20\n        /* \"#utility.yul\":334:343   */\n      dup3\n        /* \"#utility.yul\":330:348   */\n      add\n        /* \"#utility.yul\":322:348   */\n      swap1\n      pop\n        /* \"#utility.yul\":358:429   */\n      tag_87\n        /* \"#utility.yul\":426:427   */\n      0x00\n        /* \"#utility.yul\":415:424   */\n      dup4\n        /* \"#utility.yul\":411:428   */\n      add\n        /* \"#utility.yul\":402:408   */\n      dup5\n        /* \"#utility.yul\":358:429   */\n      tag_67\n      jump\t// in\n    tag_87:\n        /* \"#utility.yul\":214:436   */\n      swap3\n      swap2\n      pop\n      pop\n      jump\t// out\n        /* \"#utility.yul\":523:640   */\n    tag_69:\n        /* \"#utility.yul\":632:633   */\n      0x00\n        /* \"#utility.yul\":629:630   */\n      dup1\n        /* \"#utility.yul\":622:634   */\n      revert\n        /* \"#utility.yul\":769:883   */\n    tag_71:\n        /* \"#utility.yul\":806:813   */\n      0x00\n        /* \"#utility.yul\":846:876   */\n      0xffffffffffffffffffffffffffff\n        /* \"#utility.yul\":839:844   */\n      dup3\n        /* \"#utility.yul\":835:877   */\n      and\n        /* \"#utility.yul\":824:877   */\n      swap1\n      pop\n        /* \"#utility.yul\":769:883   */\n      swap2\n      swap1\n      pop\n      jump\t// out\n        /* \"#utility.yul\":889:1011   */\n    tag_72:\n        /* \"#utility.yul\":962:986   */\n      tag_93\n        /* \"#utility.yul\":980:985   */\n      dup2\n        /* \"#utility.yul\":962:986   */\n      tag_71\n      jump\t// in\n    tag_93:\n        /* \"#utility.yul\":955:960   */\n      dup2\n        /* \"#utility.yul\":952:987   */\n      eq\n        /* \"#utility.yul\":942:1005   */\n      tag_94\n      jumpi\n        /* \"#utility.yul\":1001:1002   */\n      0x00\n        /* \"#utility.yul\":998:999   */\n      dup1\n        /* \"#utility.yul\":991:1003   */\n      revert\n        /* \"#utility.yul\":942:1005   */\n    tag_94:\n        /* \"#utility.yul\":889:1011   */\n      pop\n      jump\t// out\n        /* \"#utility.yul\":1017:1156   */\n    tag_73:\n        /* \"#utility.yul\":1063:1068   */\n      0x00\n        /* \"#utility.yul\":1101:1107   */\n      dup2\n        /* \"#utility.yul\":1088:1108   */\n      calldataload\n        /* \"#utility.yul\":1079:1108   */\n      swap1\n      pop\n        /* \"#utility.yul\":1117:1150   */\n      tag_96\n        /* \"#utility.yul\":1144:1149   */\n      dup2\n        /* \"#utility.yul\":1117:1150   */\n      tag_72\n      jump\t// in\n    tag_96:\n        /* \"#utility.yul\":1017:1156   */\n      swap3\n      swap2\n      pop\n      pop\n      jump\t// out\n        /* \"#utility.yul\":1162:1491   */\n    tag_31:\n        /* \"#utility.yul\":1221:1227   */\n      0x00\n        /* \"#utility.yul\":1270:1272   */\n      0x20\n        /* \"#utility.yul\":1258:1267   */\n      dup3\n        /* \"#utility.yul\":1249:1256   */\n      dup5\n        /* \"#utility.yul\":1245:1268   */\n      sub\n        /* \"#utility.yul\":1241:1273   */\n      slt\n        /* \"#utility.yul\":1238:1357   */\n      iszero\n      tag_98\n      jumpi\n        /* \"#utility.yul\":1276:1355   */\n      tag_99\n      tag_69\n      jump\t// in\n    tag_99:\n        /* \"#utility.yul\":1238:1357   */\n    tag_98:\n        /* \"#utility.yul\":1396:1397   */\n      0x00\n        /* \"#utility.yul\":1421:1474   */\n      tag_100\n        /* \"#utility.yul\":1466:1473   */\n      dup5\n        /* \"#utility.yul\":1457:1463   */\n      dup3\n        /* \"#utility.yul\":1446:1455   */\n      dup6\n        /* \"#utility.yul\":1442:1464   */\n      add\n        /* \"#utility.yul\":1421:1474   */\n      tag_73\n      jump\t// in\n    tag_100:\n        /* \"#utility.yul\":1411:1474   */\n      swap2\n      pop\n        /* \"#utility.yul\":1367:1484   */\n      pop\n        /* \"#utility.yul\":1162:1491   */\n      swap3\n      swap2\n      pop\n      pop\n      jump\t// out\n        /* \"#utility.yul\":1497:1677   */\n    tag_74:\n        /* \"#utility.yul\":1545:1622   */\n      0x4e487b7100000000000000000000000000000000000000000000000000000000\n        /* \"#utility.yul\":1542:1543   */\n      0x00\n        /* \"#utility.yul\":1535:1623   */\n      mstore\n        /* \"#utility.yul\":1642:1646   */\n      0x11\n        /* \"#utility.yul\":1639:1640   */\n      0x04\n        /* \"#utility.yul\":1632:1647   */\n      mstore\n        /* \"#utility.yul\":1666:1670   */\n      0x24\n        /* \"#utility.yul\":1663:1664   */\n      0x00\n        /* \"#utility.yul\":1656:1671   */\n      revert\n        /* \"#utility.yul\":1683:1874   */\n    tag_47:\n        /* \"#utility.yul\":1723:1726   */\n      0x00\n        /* \"#utility.yul\":1742:1762   */\n      tag_103\n        /* \"#utility.yul\":1760:1761   */\n      dup3\n        /* \"#utility.yul\":1742:1762   */\n      tag_66\n      jump\t// in\n    tag_103:\n        /* \"#utility.yul\":1737:1762   */\n      swap2\n      pop\n        /* \"#utility.yul\":1776:1796   */\n      tag_104\n        /* \"#utility.yul\":1794:1795   */\n      dup4\n        /* \"#utility.yul\":1776:1796   */\n      tag_66\n      jump\t// in\n    tag_104:\n        /* \"#utility.yul\":1771:1796   */\n      swap3\n      pop\n        /* \"#utility.yul\":1819:1820   */\n      dup3\n        /* \"#utility.yul\":1816:1817   */\n      dup3\n        /* \"#utility.yul\":1812:1821   */\n      add\n        /* \"#utility.yul\":1805:1821   */\n      swap1\n      pop\n        /* \"#utility.yul\":1840:1843   */\n      dup1\n        /* \"#utility.yul\":1837:1838   */\n      dup3\n        /* \"#utility.yul\":1834:1844   */\n      gt\n        /* \"#utility.yul\":1831:1867   */\n      iszero\n      tag_105\n      jumpi\n        /* \"#utility.yul\":1847:1865   */\n      tag_106\n      tag_74\n      jump\t// in\n    tag_106:\n        /* \"#utility.yul\":1831:1867   */\n    tag_105:\n        /* \"#utility.yul\":1683:1874   */\n      swap3\n      swap2\n      pop\n      pop\n      jump\t// out\n        /* \"#utility.yul\":1880:2074   */\n    tag_51:\n        /* \"#utility.yul\":1920:1924   */\n      0x00\n        /* \"#utility.yul\":1940:1960   */\n      tag_108\n        /* \"#utility.yul\":1958:1959   */\n      dup3\n        /* \"#utility.yul\":1940:1960   */\n      tag_66\n      jump\t// in\n    tag_108:\n        /* \"#utility.yul\":1935:1960   */\n      swap2\n      pop\n        /* \"#utility.yul\":1974:1994   */\n      tag_109\n        /* \"#utility.yul\":1992:1993   */\n      dup4\n        /* \"#utility.yul\":1974:1994   */\n      tag_66\n      jump\t// in\n    tag_109:\n        /* \"#utility.yul\":1969:1994   */\n      swap3\n      pop\n        /* \"#utility.yul\":2018:2019   */\n      dup3\n        /* \"#utility.yul\":2015:2016   */\n      dup3\n        /* \"#utility.yul\":2011:2020   */\n      sub\n        /* \"#utility.yul\":2003:2020   */\n      swap1\n      pop\n        /* \"#utility.yul\":2042:2043   */\n      dup2\n        /* \"#utility.yul\":2036:2040   */\n      dup2\n        /* \"#utility.yul\":2033:2044   */\n      gt\n        /* \"#utility.yul\":2030:2067   */\n      iszero\n      tag_110\n      jumpi\n        /* \"#utility.yul\":2047:2065   */\n      tag_111\n      tag_74\n      jump\t// in\n    tag_111:\n        /* \"#utility.yul\":2030:2067   */\n    tag_110:\n        /* \"#utility.yul\":1880:2074   */\n      swap3\n      swap2\n      pop\n      pop\n      jump\t// out\n        /* \"#utility.yul\":2080:2182   */\n    tag_75:\n        /* \"#utility.yul\":2122:2130   */\n      0x00\n        /* \"#utility.yul\":2169:2174   */\n      dup2\n        /* \"#utility.yul\":2166:2167   */\n      0x01\n        /* \"#utility.yul\":2162:2175   */\n      shr\n        /* \"#utility.yul\":2141:2175   */\n      swap1\n      pop\n        /* \"#utility.yul\":2080:2182   */\n      swap2\n      swap1\n      pop\n      jump\t// out\n        /* \"#utility.yul\":2188:3036   */\n    tag_76:\n        /* \"#utility.yul\":2249:2254   */\n      0x00\n        /* \"#utility.yul\":2256:2260   */\n      dup1\n        /* \"#utility.yul\":2280:2286   */\n      dup3\n        /* \"#utility.yul\":2271:2286   */\n      swap2\n      pop\n        /* \"#utility.yul\":2304:2309   */\n      dup4\n        /* \"#utility.yul\":2295:2309   */\n      swap1\n      pop\n        /* \"#utility.yul\":2318:3030   */\n    tag_114:\n        /* \"#utility.yul\":2339:2340   */\n      0x01\n        /* \"#utility.yul\":2329:2337   */\n      dup6\n        /* \"#utility.yul\":2326:2341   */\n      gt\n        /* \"#utility.yul\":2318:3030   */\n      iszero\n      tag_116\n      jumpi\n        /* \"#utility.yul\":2434:2438   */\n      dup1\n        /* \"#utility.yul\":2429:2432   */\n      dup7\n        /* \"#utility.yul\":2425:2439   */\n      div\n        /* \"#utility.yul\":2419:2423   */\n      dup2\n        /* \"#utility.yul\":2416:2440   */\n      gt\n        /* \"#utility.yul\":2413:2463   */\n      iszero\n      tag_117\n      jumpi\n        /* \"#utility.yul\":2443:2461   */\n      tag_118\n      tag_74\n      jump\t// in\n    tag_118:\n        /* \"#utility.yul\":2413:2463   */\n    tag_117:\n        /* \"#utility.yul\":2493:2494   */\n      0x01\n        /* \"#utility.yul\":2483:2491   */\n      dup6\n        /* \"#utility.yul\":2479:2495   */\n      and\n        /* \"#utility.yul\":2476:2927   */\n      iszero\n      tag_119\n      jumpi\n        /* \"#utility.yul\":2908:2912   */\n      dup1\n        /* \"#utility.yul\":2901:2906   */\n      dup3\n        /* \"#utility.yul\":2897:2913   */\n      mul\n        /* \"#utility.yul\":2888:2913   */\n      swap2\n      pop\n        /* \"#utility.yul\":2476:2927   */\n    tag_119:\n        /* \"#utility.yul\":2958:2962   */\n      dup1\n        /* \"#utility.yul\":2952:2956   */\n      dup2\n        /* \"#utility.yul\":2948:2963   */\n      mul\n        /* \"#utility.yul\":2940:2963   */\n      swap1\n      pop\n        /* \"#utility.yul\":2988:3020   */\n      tag_120\n        /* \"#utility.yul\":3011:3019   */\n      dup6\n        /* \"#utility.yul\":2988:3020   */\n      tag_75\n      jump\t// in\n    tag_120:\n        /* \"#utility.yul\":2976:3020   */\n      swap5\n      pop\n        /* \"#utility.yul\":2318:3030   */\n      jump(tag_114)\n    tag_116:\n        /* \"#utility.yul\":2188:3036   */\n      swap5\n      pop\n      swap5\n      swap3\n      pop\n      pop\n      pop\n      jump\t// out\n        /* \"#utility.yul\":3042:4115   */\n    tag_77:\n        /* \"#utility.yul\":3096:3101   */\n      0x00\n        /* \"#utility.yul\":3287:3295   */\n      dup3\n        /* \"#utility.yul\":3277:3317   */\n      tag_122\n      jumpi\n        /* \"#utility.yul\":3308:3309   */\n      0x01\n        /* \"#utility.yul\":3299:3309   */\n      swap1\n      pop\n        /* \"#utility.yul\":3310:3315   */\n      jump(tag_121)\n        /* \"#utility.yul\":3277:3317   */\n    tag_122:\n        /* \"#utility.yul\":3336:3340   */\n      dup2\n        /* \"#utility.yul\":3326:3362   */\n      tag_123\n      jumpi\n        /* \"#utility.yul\":3353:3354   */\n      0x00\n        /* \"#utility.yul\":3344:3354   */\n      swap1\n      pop\n        /* \"#utility.yul\":3355:3360   */\n      jump(tag_121)\n        /* \"#utility.yul\":3326:3362   */\n    tag_123:\n        /* \"#utility.yul\":3422:3426   */\n      dup2\n        /* \"#utility.yul\":3470:3471   */\n      0x01\n        /* \"#utility.yul\":3465:3492   */\n      dup2\n      eq\n      tag_125\n      jumpi\n        /* \"#utility.yul\":3506:3507   */\n      0x02\n        /* \"#utility.yul\":3501:3692   */\n      dup2\n      eq\n      tag_126\n      jumpi\n        /* \"#utility.yul\":3415:3692   */\n      jump(tag_124)\n        /* \"#utility.yul\":3465:3492   */\n    tag_125:\n        /* \"#utility.yul\":3483:3484   */\n      0x01\n        /* \"#utility.yul\":3474:3484   */\n      swap2\n      pop\n        /* \"#utility.yul\":3485:3490   */\n      pop\n      jump(tag_121)\n        /* \"#utility.yul\":3501:3692   */\n    tag_126:\n        /* \"#utility.yul\":3546:3549   */\n      0xff\n        /* \"#utility.yul\":3536:3544   */\n      dup5\n        /* \"#utility.yul\":3533:3550   */\n      gt\n        /* \"#utility.yul\":3530:3573   */\n      iszero\n      tag_127\n      jumpi\n        /* \"#utility.yul\":3553:3571   */\n      tag_128\n      tag_74\n      jump\t// in\n    tag_128:\n        /* \"#utility.yul\":3530:3573   */\n    tag_127:\n        /* \"#utility.yul\":3602:3610   */\n      dup4\n        /* \"#utility.yul\":3599:3600   */\n      0x02\n        /* \"#utility.yul\":3595:3611   */\n      exp\n        /* \"#utility.yul\":3586:3611   */\n      swap2\n      pop\n        /* \"#utility.yul\":3637:3640   */\n      dup5\n        /* \"#utility.yul\":3630:3635   */\n      dup3\n        /* \"#utility.yul\":3627:3641   */\n      gt\n        /* \"#utility.yul\":3624:3664   */\n      iszero\n      tag_129\n      jumpi\n        /* \"#utility.yul\":3644:3662   */\n      tag_130\n      tag_74\n      jump\t// in\n    tag_130:\n        /* \"#utility.yul\":3624:3664   */\n    tag_129:\n        /* \"#utility.yul\":3677:3682   */\n      pop\n      jump(tag_121)\n        /* \"#utility.yul\":3415:3692   */\n    tag_124:\n      pop\n        /* \"#utility.yul\":3801:3803   */\n      0x20\n        /* \"#utility.yul\":3791:3799   */\n      dup4\n        /* \"#utility.yul\":3788:3804   */\n      lt\n        /* \"#utility.yul\":3782:3785   */\n      0x0133\n        /* \"#utility.yul\":3776:3780   */\n      dup4\n        /* \"#utility.yul\":3773:3786   */\n      lt\n        /* \"#utility.yul\":3769:3805   */\n      and\n        /* \"#utility.yul\":3751:3753   */\n      0x4e\n        /* \"#utility.yul\":3741:3749   */\n      dup5\n        /* \"#utility.yul\":3738:3754   */\n      lt\n        /* \"#utility.yul\":3733:3735   */\n      0x0b\n        /* \"#utility.yul\":3727:3731   */\n      dup5\n        /* \"#utility.yul\":3724:3736   */\n      lt\n        /* \"#utility.yul\":3720:3755   */\n      and\n        /* \"#utility.yul\":3704:3815   */\n      or\n        /* \"#utility.yul\":3701:3947   */\n      iszero\n      tag_131\n      jumpi\n        /* \"#utility.yul\":3857:3865   */\n      dup3\n        /* \"#utility.yul\":3851:3855   */\n      dup3\n        /* \"#utility.yul\":3847:3866   */\n      exp\n        /* \"#utility.yul\":3838:3866   */\n      swap1\n      pop\n        /* \"#utility.yul\":3892:3895   */\n      dup4\n        /* \"#utility.yul\":3885:3890   */\n      dup2\n        /* \"#utility.yul\":3882:3896   */\n      gt\n        /* \"#utility.yul\":3879:3919   */\n      iszero\n      tag_132\n      jumpi\n        /* \"#utility.yul\":3899:3917   */\n      tag_133\n      tag_74\n      jump\t// in\n    tag_133:\n        /* \"#utility.yul\":3879:3919   */\n    tag_132:\n        /* \"#utility.yul\":3932:3937   */\n      jump(tag_121)\n        /* \"#utility.yul\":3701:3947   */\n    tag_131:\n        /* \"#utility.yul\":3972:4014   */\n      tag_134\n        /* \"#utility.yul\":4010:4013   */\n      dup5\n        /* \"#utility.yul\":4000:4008   */\n      dup5\n        /* \"#utility.yul\":3994:3998   */\n      dup5\n        /* \"#utility.yul\":3991:3992   */\n      0x01\n        /* \"#utility.yul\":3972:4014   */\n      tag_76\n      jump\t// in\n    tag_134:\n        /* \"#utility.yul\":3957:4014   */\n      swap3\n      pop\n      swap1\n      pop\n        /* \"#utility.yul\":4046:4050   */\n      dup2\n        /* \"#utility.yul\":4041:4044   */\n      dup5\n        /* \"#utility.yul\":4037:4051   */\n      div\n        /* \"#utility.yul\":4030:4035   */\n      dup2\n        /* \"#utility.yul\":4027:4052   */\n      gt\n        /* \"#utility.yul\":4024:4075   */\n      iszero\n      tag_135\n      jumpi\n        /* \"#utility.yul\":4055:4073   */\n      tag_136\n      tag_74\n      jump\t// in\n    tag_136:\n        /* \"#utility.yul\":4024:4075   */\n    tag_135:\n        /* \"#utility.yul\":4104:4108   */\n      dup2\n        /* \"#utility.yul\":4097:4102   */\n      dup2\n        /* \"#utility.yul\":4093:4109   */\n      mul\n        /* \"#utility.yul\":4084:4109   */\n      swap1\n      pop\n        /* \"#utility.yul\":3042:4115   */\n    tag_121:\n      swap4\n      swap3\n      pop\n      pop\n      pop\n      jump\t// out\n        /* \"#utility.yul\":4121:4406   */\n    tag_54:\n        /* \"#utility.yul\":4181:4186   */\n      0x00\n        /* \"#utility.yul\":4205:4228   */\n      tag_138\n        /* \"#utility.yul\":4223:4227   */\n      dup3\n        /* \"#utility.yul\":4205:4228   */\n      tag_66\n      jump\t// in\n    tag_138:\n        /* \"#utility.yul\":4197:4228   */\n      swap2\n      pop\n        /* \"#utility.yul\":4249:4276   */\n      tag_139\n        /* \"#utility.yul\":4267:4275   */\n      dup4\n        /* \"#utility.yul\":4249:4276   */\n      tag_66\n      jump\t// in\n    tag_139:\n        /* \"#utility.yul\":4237:4276   */\n      swap3\n      pop\n        /* \"#utility.yul\":4295:4399   */\n      tag_140\n        /* \"#utility.yul\":4332:4398   */\n      0xffffffffffffffffffffffffffffffffffffffffffffffffffffffffffffffff\n        /* \"#utility.yul\":4322:4330   */\n      dup5\n        /* \"#utility.yul\":4316:4320   */\n      dup5\n        /* \"#utility.yul\":4295:4399   */\n      tag_77\n      jump\t// in\n    tag_140:\n        /* \"#utility.yul\":4286:4399   */\n      swap1\n      pop\n        /* \"#utility.yul\":4121:4406   */\n      swap3\n      swap2\n      pop\n      pop\n      jump\t// out\n        /* \"#utility.yul\":4412:4592   */\n    tag_78:\n        /* \"#utility.yul\":4460:4537   */\n      0x4e487b7100000000000000000000000000000000000000000000000000000000\n        /* \"#utility.yul\":4457:4458   */\n      0x00\n        /* \"#utility.yul\":4450:4538   */\n      mstore\n        /* \"#utility.yul\":4557:4561   */\n      0x12\n        /* \"#utility.yul\":4554:4555   */\n      0x04\n        /* \"#utility.yul\":4547:4562   */\n      mstore\n        /* \"#utility.yul\":4581:4585   */\n      0x24\n        /* \"#utility.yul\":4578:4579   */\n      0x00\n        /* \"#utility.yul\":4571:4586   */\n      revert\n        /* \"#utility.yul\":4598:4783   */\n    tag_57:\n        /* \"#utility.yul\":4638:4639   */\n      0x00\n        /* \"#utility.yul\":4655:4675   */\n      tag_143\n        /* \"#utility.yul\":4673:4674   */\n      dup3\n        /* \"#utility.yul\":4655:4675   */\n      tag_66\n      jump\t// in\n    tag_143:\n        /* \"#utility.yul\":4650:4675   */\n      swap2\n      pop\n        /* \"#utility.yul\":4689:4709   */\n      tag_144\n        /* \"#utility.yul\":4707:4708   */\n      dup4\n        /* \"#utility.yul\":4689:4709   */\n      tag_66\n      jump\t// in\n    tag_144:\n        /* \"#utility.yul\":4684:4709   */\n      swap3\n      pop\n        /* \"#utility.yul\":4728:4729   */\n      dup3\n        /* \"#utility.yul\":4718:4753   */\n      tag_145\n      jumpi\n        /* \"#utility.yul\":4733:4751   */\n      tag_146\n      tag_78\n      jump\t// in\n    tag_146:\n        /* \"#utility.yul\":4718:4753   */\n    tag_145:\n        /* \"#utility.yul\":4775:4776   */\n      dup3\n        /* \"#utility.yul\":4772:4773   */\n      dup3\n        /* \"#utility.yul\":4768:4777   */\n      div\n        /* \"#utility.yul\":4763:4777   */\n      swap1\n      pop\n        /* \"#utility.yul\":4598:4783   */\n      swap3\n      swap2\n      pop\n      pop\n      jump\t// out\n        /* \"#utility.yul\":4789:5199   */\n    tag_59:\n        /* \"#utility.yul\":4829:4836   */\n      0x00\n        /* \"#utility.yul\":4852:4872   */\n      tag_148\n        /* \"#utility.yul\":4870:4871   */\n      dup3\n        /* \"#utility.yul\":4852:4872   */\n      tag_66\n      jump\t// in\n    tag_148:\n        /* \"#utility.yul\":4847:4872   */\n      swap2\n      pop\n        /* \"#utility.yul\":4886:4906   */\n      tag_149\n        /* \"#utility.yul\":4904:4905   */\n      dup4\n        /* \"#utility.yul\":4886:4906   */\n      tag_66\n      jump\t// in\n    tag_149:\n        /* \"#utility.yul\":4881:4906   */\n      swap3\n      pop\n        /* \"#utility.yul\":4941:4942   */\n      dup3\n        /* \"#utility.yul\":4938:4939   */\n      dup3\n        /* \"#utility.yul\":4934:4943   */\n      mul\n        /* \"#utility.yul\":4963:4993   */\n      tag_150\n        /* \"#utility.yul\":4981:4992   */\n      dup2\n        /* \"#utility.yul\":4963:4993   */\n      tag_66\n      jump\t// in\n    tag_150:\n        /* \"#utility.yul\":4952:4993   */\n      swap2\n      pop\n        /* \"#utility.yul\":5142:5143   */\n      dup3\n        /* \"#utility.yul\":5133:5140   */\n      dup3\n        /* \"#utility.yul\":5129:5144   */\n      div\n        /* \"#utility.yul\":5126:5127   */\n      dup5\n        /* \"#utility.yul\":5123:5145   */\n      eq\n        /* \"#utility.yul\":5103:5104   */\n      dup4\n        /* \"#utility.yul\":5096:5105   */\n      iszero\n        /* \"#utility.yul\":5076:5159   */\n      or\n        /* \"#utility.yul\":5053:5192   */\n      tag_151\n      jumpi\n        /* \"#utility.yul\":5172:5190   */\n      tag_152\n      tag_74\n      jump\t// in\n    tag_152:\n        /* \"#utility.yul\":5053:5192   */\n    tag_151:\n        /* \"#utility.yul\":4837:5199   */\n      pop\n        /* \"#utility.yul\":4789:5199   */\n      swap3\n      swap2\n      pop\n      pop\n      jump\t// out\n        /* \"#utility.yul\":5205:5374   */\n    tag_79:\n        /* \"#utility.yul\":5289:5300   */\n      0x00\n        /* \"#utility.yul\":5323:5329   */\n      dup3\n        /* \"#utility.yul\":5318:5321   */\n      dup3\n        /* \"#utility.yul\":5311:5330   */\n      mstore\n        /* \"#utility.yul\":5363:5367   */\n      0x20\n        /* \"#utility.yul\":5358:5361   */\n      dup3\n        /* \"#utility.yul\":5354:5368   */\n      add\n        /* \"#utility.yul\":5339:5368   */\n      swap1\n      pop\n        /* \"#utility.yul\":5205:5374   */\n      swap3\n      swap2\n      pop\n      pop\n      jump\t// out\n        /* \"#utility.yul\":5380:5613   */\n    tag_80:\n        /* \"#utility.yul\":5520:5554   */\n      0x416d6f756e7420746f6f206c617267652c2063757272656e7456616c7565206c\n        /* \"#utility.yul\":5516:5517   */\n      0x00\n        /* \"#utility.yul\":5508:5514   */\n      dup3\n        /* \"#utility.yul\":5504:5518   */\n      add\n        /* \"#utility.yul\":5497:5555   */\n      mstore\n        /* \"#utility.yul\":5589:5605   */\n      0x657373207468616e207a65726f2e000000000000000000000000000000000000\n        /* \"#utility.yul\":5584:5586   */\n      0x20\n        /* \"#utility.yul\":5576:5582   */\n      dup3\n        /* \"#utility.yul\":5572:5587   */\n      add\n        /* \"#utility.yul\":5565:5606   */\n      mstore\n        /* \"#utility.yul\":5380:5613   */\n      pop\n      jump\t// out\n        /* \"#utility.yul\":5619:5985   */\n    tag_81:\n        /* \"#utility.yul\":5761:5764   */\n      0x00\n        /* \"#utility.yul\":5782:5849   */\n      tag_156\n        /* \"#utility.yul\":5846:5848   */\n      0x2e\n        /* \"#utility.yul\":5841:5844   */\n      dup4\n        /* \"#utility.yul\":5782:5849   */\n      tag_79\n      jump\t// in\n    tag_156:\n        /* \"#utility.yul\":5775:5849   */\n      swap2\n      pop\n        /* \"#utility.yul\":5858:5951   */\n      tag_157\n        /* \"#utility.yul\":5947:5950   */\n      dup3\n        /* \"#utility.yul\":5858:5951   */\n      tag_80\n      jump\t// in\n    tag_157:\n        /* \"#utility.yul\":5976:5978   */\n      0x40\n        /* \"#utility.yul\":5971:5974   */\n      dup3\n        /* \"#utility.yul\":5967:5979   */\n      add\n        /* \"#utility.yul\":5960:5979   */\n      swap1\n      pop\n        /* \"#utility.yul\":5619:5985   */\n      swap2\n      swap1\n      pop\n      jump\t// out\n        /* \"#utility.yul\":5991:6410   */\n    tag_64:\n        /* \"#utility.yul\":6157:6161   */\n      0x00\n        /* \"#utility.yul\":6195:6197   */\n      0x20\n        /* \"#utility.yul\":6184:6193   */\n      dup3\n        /* \"#utility.yul\":6180:6198   */\n      add\n        /* \"#utility.yul\":6172:6198   */\n      swap1\n      pop\n        /* \"#utility.yul\":6244:6253   */\n      dup2\n        /* \"#utility.yul\":6238:6242   */\n      dup2\n        /* \"#utility.yul\":6234:6254   */\n      sub\n        /* \"#utility.yul\":6230:6231   */\n      0x00\n        /* \"#utility.yul\":6219:6228   */\n      dup4\n        /* \"#utility.yul\":6215:6232   */\n      add\n        /* \"#utility.yul\":6208:6255   */\n      mstore\n        /* \"#utility.yul\":6272:6403   */\n      tag_159\n        /* \"#utility.yul\":6398:6402   */\n      dup2\n        /* \"#utility.yul\":6272:6403   */\n      tag_81\n      jump\t// in\n    tag_159:\n        /* \"#utility.yul\":6264:6403   */\n      swap1\n      pop\n        /* \"#utility.yul\":5991:6410   */\n      swap2\n      swap1\n      pop\n      jump\t// out\n\n    auxdata: 0xa26469706673582212202bc846b802bc20c9b5cbda3900f6d672dc01b16ad325f9b04e987bcbb63281a264736f6c634300081a0033\n}\n",
				"bytecode": {
					"linkReferences": {},
					"object": "608060405261012c5f5563a1f4f8ae600255606560035560646004553480156025575f80fd5b504260018190555061070c8061003a5f395ff3fe608060405234801561000f575f80fd5b506004361061009c575f3560e01c80637eada742116100645780637eada74214610122578063c71daccb1461013e578063e41403971461015c578063f69e20461461017a578063ff26b76b146101845761009c565b806332ebdb5f146100a057806339a090c9146100aa578063683dd191146100c8578063698996f8146100e65780636f543c8314610104575b5f80fd5b6100a86101a0565b005b6100b26101a9565b6040516100bf9190610303565b60405180910390f35b6100d06101af565b6040516100dd9190610303565b60405180910390f35b6100ee6101b5565b6040516100fb9190610303565b60405180910390f35b61010c6101ba565b6040516101199190610303565b60405180910390f35b61013c60048036038101906101379190610363565b6101c0565b005b6101466101ea565b6040516101539190610303565b60405180910390f35b6101646101f2565b6040516101719190610303565b60405180910390f35b6101826101f8565b005b61019e60048036038101906101999190610363565b61026d565b005b42600181905550565b60025481565b60035481565b5f5481565b60045481565b806dffffffffffffffffffffffffffff165f808282546101e091906103bb565b9250508190555050565b5f8054905090565b60015481565b5f4290505f6001548261020b91906103ee565b90505f60018261021b91906103ee565b6004546102289190610550565b826003546102369190610550565b61024091906105c7565b9050600454815f5461025291906105f7565b61025c91906105c7565b5f8190555082600181905550505050565b806dffffffffffffffffffffffffffff165f5410156102c1576040517f08c379a00000000000000000000000000000000000000000000000000000000081526004016102b8906106b8565b60405180910390fd5b806dffffffffffffffffffffffffffff165f808282546102e191906103ee565b9250508190555050565b5f819050919050565b6102fd816102eb565b82525050565b5f6020820190506103165f8301846102f4565b92915050565b5f80fd5b5f6dffffffffffffffffffffffffffff82169050919050565b61034281610320565b811461034c575f80fd5b50565b5f8135905061035d81610339565b92915050565b5f602082840312156103785761037761031c565b5b5f6103858482850161034f565b91505092915050565b7f4e487b71000000000000000000000000000000000000000000000000000000005f52601160045260245ffd5b5f6103c5826102eb565b91506103d0836102eb565b92508282019050808211156103e8576103e761038e565b5b92915050565b5f6103f8826102eb565b9150610403836102eb565b925082820390508181111561041b5761041a61038e565b5b92915050565b5f8160011c9050919050565b5f808291508390505b6001851115610476578086048111156104525761045161038e565b5b60018516156104615780820291505b808102905061046f85610421565b9450610436565b94509492505050565b5f8261048e5760019050610549565b8161049b575f9050610549565b81600181146104b157600281146104bb576104ea565b6001915050610549565b60ff8411156104cd576104cc61038e565b5b8360020a9150848211156104e4576104e361038e565b5b50610549565b5060208310610133831016604e8410600b841016171561051f5782820a90508381111561051a5761051961038e565b5b610549565b61052c848484600161042d565b925090508184048111156105435761054261038e565b5b81810290505b9392505050565b5f61055a826102eb565b9150610565836102eb565b92506105927fffffffffffffffffffffffffffffffffffffffffffffffffffffffffffffffff848461047f565b905092915050565b7f4e487b71000000000000000000000000000000000000000000000000000000005f52601260045260245ffd5b5f6105d1826102eb565b91506105dc836102eb565b9250826105ec576105eb61059a565b5b828204905092915050565b5f610601826102eb565b915061060c836102eb565b925082820261061a816102eb565b915082820484148315176106315761063061038e565b5b5092915050565b5f82825260208201905092915050565b7f416d6f756e7420746f6f206c617267652c2063757272656e7456616c7565206c5f8201527f657373207468616e207a65726f2e000000000000000000000000000000000000602082015250565b5f6106a2602e83610638565b91506106ad82610648565b604082019050919050565b5f6020820190508181035f8301526106cf81610696565b905091905056fea26469706673582212202bc846b802bc20c9b5cbda3900f6d672dc01b16ad325f9b04e987bcbb63281a264736f6c634300081a0033",
					"opcodes": "PUSH1 0x80 PUSH1 0x40 MSTORE PUSH2 0x12C PUSH0 SSTORE PUSH4 0xA1F4F8AE PUSH1 0x2 SSTORE PUSH1 0x65 PUSH1 0x3 SSTORE PUSH1 0x64 PUSH1 0x4 SSTORE CALLVALUE DUP1 ISZERO PUSH1 0x25 JUMPI PUSH0 DUP1 REVERT JUMPDEST POP TIMESTAMP PUSH1 0x1 DUP2 SWAP1 SSTORE POP PUSH2 0x70C DUP1 PUSH2 0x3A PUSH0 CODECOPY PUSH0 RETURN INVALID PUSH1 0x80 PUSH1 0x40 MSTORE CALLVALUE DUP1 ISZERO PUSH2 0xF JUMPI PUSH0 DUP1 REVERT JUMPDEST POP PUSH1 0x4 CALLDATASIZE LT PUSH2 0x9C JUMPI PUSH0 CALLDATALOAD PUSH1 0xE0 SHR DUP1 PUSH4 0x7EADA742 GT PUSH2 0x64 JUMPI DUP1 PUSH4 0x7EADA742 EQ PUSH2 0x122 JUMPI DUP1 PUSH4 0xC71DACCB EQ PUSH2 0x13E JUMPI DUP1 PUSH4 0xE4140397 EQ PUSH2 0x15C JUMPI DUP1 PUSH4 0xF69E2046 EQ PUSH2 0x17A JUMPI DUP1 PUSH4 0xFF26B76B EQ PUSH2 0x184 JUMPI PUSH2 0x9C JUMP JUMPDEST DUP1 PUSH4 0x32EBDB5F EQ PUSH2 0xA0 JUMPI DUP1 PUSH4 0x39A090C9 EQ PUSH2 0xAA JUMPI DUP1 PUSH4 0x683DD191 EQ PUSH2 0xC8 JUMPI DUP1 PUSH4 0x698996F8 EQ PUSH2 0xE6 JUMPI DUP1 PUSH4 0x6F543C83 EQ PUSH2 0x104 JUMPI JUMPDEST PUSH0 DUP1 REVERT JUMPDEST PUSH2 0xA8 PUSH2 0x1A0 JUMP JUMPDEST STOP JUMPDEST PUSH2 0xB2 PUSH2 0x1A9 JUMP JUMPDEST PUSH1 0x40 MLOAD PUSH2 0xBF SWAP2 SWAP1 PUSH2 0x303 JUMP JUMPDEST PUSH1 0x40 MLOAD DUP1 SWAP2 SUB SWAP1 RETURN JUMPDEST PUSH2 0xD0 PUSH2 0x1AF JUMP JUMPDEST PUSH1 0x40 MLOAD PUSH2 0xDD SWAP2 SWAP1 PUSH2 0x303 JUMP JUMPDEST PUSH1 0x40 MLOAD DUP1 SWAP2 SUB SWAP1 RETURN JUMPDEST PUSH2 0xEE PUSH2 0x1B5 JUMP JUMPDEST PUSH1 0x40 MLOAD PUSH2 0xFB SWAP2 SWAP1 PUSH2 0x303 JUMP JUMPDEST PUSH1 0x40 MLOAD DUP1 SWAP2 SUB SWAP1 RETURN JUMPDEST PUSH2 0x10C PUSH2 0x1BA JUMP JUMPDEST PUSH1 0x40 MLOAD PUSH2 0x119 SWAP2 SWAP1 PUSH2 0x303 JUMP JUMPDEST PUSH1 0x40 MLOAD DUP1 SWAP2 SUB SWAP1 RETURN JUMPDEST PUSH2 0x13C PUSH1 0x4 DUP1 CALLDATASIZE SUB DUP2 ADD SWAP1 PUSH2 0x137 SWAP2 SWAP1 PUSH2 0x363 JUMP JUMPDEST PUSH2 0x1C0 JUMP JUMPDEST STOP JUMPDEST PUSH2 0x146 PUSH2 0x1EA JUMP JUMPDEST PUSH1 0x40 MLOAD PUSH2 0x153 SWAP2 SWAP1 PUSH2 0x303 JUMP JUMPDEST PUSH1 0x40 MLOAD DUP1 SWAP2 SUB SWAP1 RETURN JUMPDEST PUSH2 0x164 PUSH2 0x1F2 JUMP JUMPDEST PUSH1 0x40 MLOAD PUSH2 0x171 SWAP2 SWAP1 PUSH2 0x303 JUMP JUMPDEST PUSH1 0x40 MLOAD DUP1 SWAP2 SUB SWAP1 RETURN JUMPDEST PUSH2 0x182 PUSH2 0x1F8 JUMP JUMPDEST STOP JUMPDEST PUSH2 0x19E PUSH1 0x4 DUP1 CALLDATASIZE SUB DUP2 ADD SWAP1 PUSH2 0x199 SWAP2 SWAP1 PUSH2 0x363 JUMP JUMPDEST PUSH2 0x26D JUMP JUMPDEST STOP JUMPDEST TIMESTAMP PUSH1 0x1 DUP2 SWAP1 SSTORE POP JUMP JUMPDEST PUSH1 0x2 SLOAD DUP2 JUMP JUMPDEST PUSH1 0x3 SLOAD DUP2 JUMP JUMPDEST PUSH0 SLOAD DUP2 JUMP JUMPDEST PUSH1 0x4 SLOAD DUP2 JUMP JUMPDEST DUP1 PUSH14 0xFFFFFFFFFFFFFFFFFFFFFFFFFFFF AND PUSH0 DUP1 DUP3 DUP3 SLOAD PUSH2 0x1E0 SWAP2 SWAP1 PUSH2 0x3BB JUMP JUMPDEST SWAP3 POP POP DUP2 SWAP1 SSTORE POP POP JUMP JUMPDEST PUSH0 DUP1 SLOAD SWAP1 POP SWAP1 JUMP JUMPDEST PUSH1 0x1 SLOAD DUP2 JUMP JUMPDEST PUSH0 TIMESTAMP SWAP1 POP PUSH0 PUSH1 0x1 SLOAD DUP3 PUSH2 0x20B SWAP2 SWAP1 PUSH2 0x3EE JUMP JUMPDEST SWAP1 POP PUSH0 PUSH1 0x1 DUP3 PUSH2 0x21B SWAP2 SWAP1 PUSH2 0x3EE JUMP JUMPDEST PUSH1 0x4 SLOAD PUSH2 0x228 SWAP2 SWAP1 PUSH2 0x550 JUMP JUMPDEST DUP3 PUSH1 0x3 SLOAD PUSH2 0x236 SWAP2 SWAP1 PUSH2 0x550 JUMP JUMPDEST PUSH2 0x240 SWAP2 SWAP1 PUSH2 0x5C7 JUMP JUMPDEST SWAP1 POP PUSH1 0x4 SLOAD DUP2 PUSH0 SLOAD PUSH2 0x252 SWAP2 SWAP1 PUSH2 0x5F7 JUMP JUMPDEST PUSH2 0x25C SWAP2 SWAP1 PUSH2 0x5C7 JUMP JUMPDEST PUSH0 DUP2 SWAP1 SSTORE POP DUP3 PUSH1 0x1 DUP2 SWAP1 SSTORE POP POP POP POP JUMP JUMPDEST DUP1 PUSH14 0xFFFFFFFFFFFFFFFFFFFFFFFFFFFF AND PUSH0 SLOAD LT ISZERO PUSH2 0x2C1 JUMPI PUSH1 0x40 MLOAD PUSH32 0x8C379A000000000000000000000000000000000000000000000000000000000 DUP2 MSTORE PUSH1 0x4 ADD PUSH2 0x2B8 SWAP1 PUSH2 0x6B8 JUMP JUMPDEST PUSH1 0x40 MLOAD DUP1 SWAP2 SUB SWAP1 REVERT JUMPDEST DUP1 PUSH14 0xFFFFFFFFFFFFFFFFFFFFFFFFFFFF AND PUSH0 DUP1 DUP3 DUP3 SLOAD PUSH2 0x2E1 SWAP2 SWAP1 PUSH2 0x3EE JUMP JUMPDEST SWAP3 POP POP DUP2 SWAP1 SSTORE POP POP JUMP JUMPDEST PUSH0 DUP2 SWAP1 POP SWAP2 SWAP1 POP JUMP JUMPDEST PUSH2 0x2FD DUP2 PUSH2 0x2EB JUMP JUMPDEST DUP3 MSTORE POP POP JUMP JUMPDEST PUSH0 PUSH1 0x20 DUP3 ADD SWAP1 POP PUSH2 0x316 PUSH0 DUP4 ADD DUP5 PUSH2 0x2F4 JUMP JUMPDEST SWAP3 SWAP2 POP POP JUMP JUMPDEST PUSH0 DUP1 REVERT JUMPDEST PUSH0 PUSH14 0xFFFFFFFFFFFFFFFFFFFFFFFFFFFF DUP3 AND SWAP1 POP SWAP2 SWAP1 POP JUMP JUMPDEST PUSH2 0x342 DUP2 PUSH2 0x320 JUMP JUMPDEST DUP2 EQ PUSH2 0x34C JUMPI PUSH0 DUP1 REVERT JUMPDEST POP JUMP JUMPDEST PUSH0 DUP2 CALLDATALOAD SWAP1 POP PUSH2 0x35D DUP2 PUSH2 0x339 JUMP JUMPDEST SWAP3 SWAP2 POP POP JUMP JUMPDEST PUSH0 PUSH1 0x20 DUP3 DUP5 SUB SLT ISZERO PUSH2 0x378 JUMPI PUSH2 0x377 PUSH2 0x31C JUMP JUMPDEST JUMPDEST PUSH0 PUSH2 0x385 DUP5 DUP3 DUP6 ADD PUSH2 0x34F JUMP JUMPDEST SWAP2 POP POP SWAP3 SWAP2 POP POP JUMP JUMPDEST PUSH32 0x4E487B7100000000000000000000000000000000000000000000000000000000 PUSH0 MSTORE PUSH1 0x11 PUSH1 0x4 MSTORE PUSH1 0x24 PUSH0 REVERT JUMPDEST PUSH0 PUSH2 0x3C5 DUP3 PUSH2 0x2EB JUMP JUMPDEST SWAP2 POP PUSH2 0x3D0 DUP4 PUSH2 0x2EB JUMP JUMPDEST SWAP3 POP DUP3 DUP3 ADD SWAP1 POP DUP1 DUP3 GT ISZERO PUSH2 0x3E8 JUMPI PUSH2 0x3E7 PUSH2 0x38E JUMP JUMPDEST JUMPDEST SWAP3 SWAP2 POP POP JUMP JUMPDEST PUSH0 PUSH2 0x3F8 DUP3 PUSH2 0x2EB JUMP JUMPDEST SWAP2 POP PUSH2 0x403 DUP4 PUSH2 0x2EB JUMP JUMPDEST SWAP3 POP DUP3 DUP3 SUB SWAP1 POP DUP2 DUP2 GT ISZERO PUSH2 0x41B JUMPI PUSH2 0x41A PUSH2 0x38E JUMP JUMPDEST JUMPDEST SWAP3 SWAP2 POP POP JUMP JUMPDEST PUSH0 DUP2 PUSH1 0x1 SHR SWAP1 POP SWAP2 SWAP1 POP JUMP JUMPDEST PUSH0 DUP1 DUP3 SWAP2 POP DUP4 SWAP1 POP JUMPDEST PUSH1 0x1 DUP6 GT ISZERO PUSH2 0x476 JUMPI DUP1 DUP7 DIV DUP2 GT ISZERO PUSH2 0x452 JUMPI PUSH2 0x451 PUSH2 0x38E JUMP JUMPDEST JUMPDEST PUSH1 0x1 DUP6 AND ISZERO PUSH2 0x461 JUMPI DUP1 DUP3 MUL SWAP2 POP JUMPDEST DUP1 DUP2 MUL SWAP1 POP PUSH2 0x46F DUP6 PUSH2 0x421 JUMP JUMPDEST SWAP5 POP PUSH2 0x436 JUMP JUMPDEST SWAP5 POP SWAP5 SWAP3 POP POP POP JUMP JUMPDEST PUSH0 DUP3 PUSH2 0x48E JUMPI PUSH1 0x1 SWAP1 POP PUSH2 0x549 JUMP JUMPDEST DUP2 PUSH2 0x49B JUMPI PUSH0 SWAP1 POP PUSH2 0x549 JUMP JUMPDEST DUP2 PUSH1 0x1 DUP2 EQ PUSH2 0x4B1 JUMPI PUSH1 0x2 DUP2 EQ PUSH2 0x4BB JUMPI PUSH2 0x4EA JUMP JUMPDEST PUSH1 0x1 SWAP2 POP POP PUSH2 0x549 JUMP JUMPDEST PUSH1 0xFF DUP5 GT ISZERO PUSH2 0x4CD JUMPI PUSH2 0x4CC PUSH2 0x38E JUMP JUMPDEST JUMPDEST DUP4 PUSH1 0x2 EXP SWAP2 POP DUP5 DUP3 GT ISZERO PUSH2 0x4E4 JUMPI PUSH2 0x4E3 PUSH2 0x38E JUMP JUMPDEST JUMPDEST POP PUSH2 0x549 JUMP JUMPDEST POP PUSH1 0x20 DUP4 LT PUSH2 0x133 DUP4 LT AND PUSH1 0x4E DUP5 LT PUSH1 0xB DUP5 LT AND OR ISZERO PUSH2 0x51F JUMPI DUP3 DUP3 EXP SWAP1 POP DUP4 DUP2 GT ISZERO PUSH2 0x51A JUMPI PUSH2 0x519 PUSH2 0x38E JUMP JUMPDEST JUMPDEST PUSH2 0x549 JUMP JUMPDEST PUSH2 0x52C DUP5 DUP5 DUP5 PUSH1 0x1 PUSH2 0x42D JUMP JUMPDEST SWAP3 POP SWAP1 POP DUP2 DUP5 DIV DUP2 GT ISZERO PUSH2 0x543 JUMPI PUSH2 0x542 PUSH2 0x38E JUMP JUMPDEST JUMPDEST DUP2 DUP2 MUL SWAP1 POP JUMPDEST SWAP4 SWAP3 POP POP POP JUMP JUMPDEST PUSH0 PUSH2 0x55A DUP3 PUSH2 0x2EB JUMP JUMPDEST SWAP2 POP PUSH2 0x565 DUP4 PUSH2 0x2EB JUMP JUMPDEST SWAP3 POP PUSH2 0x592 PUSH32 0xFFFFFFFFFFFFFFFFFFFFFFFFFFFFFFFFFFFFFFFFFFFFFFFFFFFFFFFFFFFFFFFF DUP5 DUP5 PUSH2 0x47F JUMP JUMPDEST SWAP1 POP SWAP3 SWAP2 POP POP JUMP JUMPDEST PUSH32 0x4E487B7100000000000000000000000000000000000000000000000000000000 PUSH0 MSTORE PUSH1 0x12 PUSH1 0x4 MSTORE PUSH1 0x24 PUSH0 REVERT JUMPDEST PUSH0 PUSH2 0x5D1 DUP3 PUSH2 0x2EB JUMP JUMPDEST SWAP2 POP PUSH2 0x5DC DUP4 PUSH2 0x2EB JUMP JUMPDEST SWAP3 POP DUP3 PUSH2 0x5EC JUMPI PUSH2 0x5EB PUSH2 0x59A JUMP JUMPDEST JUMPDEST DUP3 DUP3 DIV SWAP1 POP SWAP3 SWAP2 POP POP JUMP JUMPDEST PUSH0 PUSH2 0x601 DUP3 PUSH2 0x2EB JUMP JUMPDEST SWAP2 POP PUSH2 0x60C DUP4 PUSH2 0x2EB JUMP JUMPDEST SWAP3 POP DUP3 DUP3 MUL PUSH2 0x61A DUP2 PUSH2 0x2EB JUMP JUMPDEST SWAP2 POP DUP3 DUP3 DIV DUP5 EQ DUP4 ISZERO OR PUSH2 0x631 JUMPI PUSH2 0x630 PUSH2 0x38E JUMP JUMPDEST JUMPDEST POP SWAP3 SWAP2 POP POP JUMP JUMPDEST PUSH0 DUP3 DUP3 MSTORE PUSH1 0x20 DUP3 ADD SWAP1 POP SWAP3 SWAP2 POP POP JUMP JUMPDEST PUSH32 0x416D6F756E7420746F6F206C617267652C2063757272656E7456616C7565206C PUSH0 DUP3 ADD MSTORE PUSH32 0x657373207468616E207A65726F2E000000000000000000000000000000000000 PUSH1 0x20 DUP3 ADD MSTORE POP JUMP JUMPDEST PUSH0 PUSH2 0x6A2 PUSH1 0x2E DUP4 PUSH2 0x638 JUMP JUMPDEST SWAP2 POP PUSH2 0x6AD DUP3 PUSH2 0x648 JUMP JUMPDEST PUSH1 0x40 DUP3 ADD SWAP1 POP SWAP2 SWAP1 POP JUMP JUMPDEST PUSH0 PUSH1 0x20 DUP3 ADD SWAP1 POP DUP2 DUP2 SUB PUSH0 DUP4 ADD MSTORE PUSH2 0x6CF DUP2 PUSH2 0x696 JUMP JUMPDEST SWAP1 POP SWAP2 SWAP1 POP JUMP INVALID LOG2 PUSH5 0x6970667358 0x22 SLT KECCAK256 0x2B 0xC8 CHAINID 0xB8 MUL 0xBC KECCAK256 0xC9 0xB5 0xCB 0xDA CODECOPY STOP 0xF6 0xD6 PUSH19 0xDC01B16AD325F9B04E987BCBB63281A264736F PUSH13 0x634300081A0033000000000000 "
				},
				"gasEstimates": {
					"creation": {
						"codeDepositCost": "360800",
						"executionCost": "110933",
						"totalCost": "471733"
					},
					"external": {
						"Id()": "2448",
						"checkBalance()": "2454",
						"compound()": "infinite",
						"currentValue()": "2491",
						"scaleBase()": "2514",
						"scaleFactor()": "2470",
						"storeCurrentTime()": "22257",
						"storeTime()": "2469",
						"topUp(uint112)": "infinite",
						"withDraw(uint112)": "infinite"
					}
				},
				"methodIdentifiers": {
					"Id()": "39a090c9",
					"checkBalance()": "c71daccb",
					"compound()": "f69e2046",
					"currentValue()": "698996f8",
					"scaleBase()": "6f543c83",
					"scaleFactor()": "683dd191",
					"storeCurrentTime()": "32ebdb5f",
					"storeTime()": "e4140397",
					"topUp(uint112)": "7eada742",
					"withDraw(uint112)": "ff26b76b"
				}
			},
			"storageLayout": {
				"storage": [
					{
						"astId": 4,
						"contract": "contracts/Balance,sol.sol:Owner",
						"label": "currentValue",
						"offset": 0,
						"slot": "0",
						"type": "t_uint256"
					},
					{
						"astId": 6,
						"contract": "contracts/Balance,sol.sol:Owner",
						"label": "storeTime",
						"offset": 0,
						"slot": "1",
						"type": "t_uint256"
					},
					{
						"astId": 9,
						"contract": "contracts/Balance,sol.sol:Owner",
						"label": "Id",
						"offset": 0,
						"slot": "2",
						"type": "t_uint256"
					},
					{
						"astId": 12,
						"contract": "contracts/Balance,sol.sol:Owner",
						"label": "scaleFactor",
						"offset": 0,
						"slot": "3",
						"type": "t_uint256"
					},
					{
						"astId": 15,
						"contract": "contracts/Balance,sol.sol:Owner",
						"label": "scaleBase",
						"offset": 0,
						"slot": "4",
						"type": "t_uint256"
					}
				],
				"types": {
					"t_uint256": {
						"encoding": "inplace",
						"label": "uint256",
						"numberOfBytes": "32"
					}
				}
			},
			"userdoc": {
				"kind": "user",
				"methods": {},
				"version": 1
			}
		}
	}
}