{
	"data": {
		"bytecode": {
			"linkReferences": {},
			"object": "6080604052600a5f55600a6001553480156017575f80fd5b5061030f806100255f395ff3fe608060405234801561000f575f80fd5b5060043610610060575f3560e01c80632173d6e9146100645780634f2be91f146100825780637cc5c136146100a0578063b53b8d7a146100be578063c54124be146100dc578063f3593cd0146100fa575b5f80fd5b61006c610118565b604051610079919061018f565b60405180910390f35b61008a61011d565b604051610097919061018f565b60405180910390f35b6100a8610132565b6040516100b5919061018f565b60405180910390f35b6100c6610138565b6040516100d3919061018f565b60405180910390f35b6100e461014d565b6040516100f1919061018f565b60405180910390f35b610102610162565b60405161010f919061018f565b60405180910390f35b5f5481565b5f6001545f5461012d91906101d5565b905090565b60015481565b5f6001545f546101489190610235565b905090565b5f6001545f5461015d9190610265565b905090565b5f6001545f546101729190610298565b905090565b5f819050919050565b61018981610177565b82525050565b5f6020820190506101a25f830184610180565b92915050565b7f4e487b71000000000000000000000000000000000000000000000000000000005f52601160045260245ffd5b5f6101df82610177565b91506101ea83610177565b9250828201905080821115610202576102016101a8565b5b92915050565b7f4e487b71000000000000000000000000000000000000000000000000000000005f52601260045260245ffd5b5f61023f82610177565b915061024a83610177565b92508261025a57610259610208565b5b828204905092915050565b5f61026f82610177565b915061027a83610177565b9250828203905081811115610292576102916101a8565b5b92915050565b5f6102a282610177565b91506102ad83610177565b92508282026102bb81610177565b915082820484148315176102d2576102d16101a8565b5b509291505056fea26469706673582212206e60c8fd6a261491f5d58653f0cfed4a430c49aadcb53a1dc71a69f97376669664736f6c634300081a0033",
			"opcodes": "PUSH1 0x80 PUSH1 0x40 MSTORE PUSH1 0xA PUSH0 SSTORE PUSH1 0xA PUSH1 0x1 SSTORE CALLVALUE DUP1 ISZERO PUSH1 0x17 JUMPI PUSH0 DUP1 REVERT JUMPDEST POP PUSH2 0x30F DUP1 PUSH2 0x25 PUSH0 CODECOPY PUSH0 RETURN INVALID PUSH1 0x80 PUSH1 0x40 MSTORE CALLVALUE DUP1 ISZERO PUSH2 0xF JUMPI PUSH0 DUP1 REVERT JUMPDEST POP PUSH1 0x4 CALLDATASIZE LT PUSH2 0x60 JUMPI PUSH0 CALLDATALOAD PUSH1 0xE0 SHR DUP1 PUSH4 0x2173D6E9 EQ PUSH2 0x64 JUMPI DUP1 PUSH4 0x4F2BE91F EQ PUSH2 0x82 JUMPI DUP1 PUSH4 0x7CC5C136 EQ PUSH2 0xA0 JUMPI DUP1 PUSH4 0xB53B8D7A EQ PUSH2 0xBE JUMPI DUP1 PUSH4 0xC54124BE EQ PUSH2 0xDC JUMPI DUP1 PUSH4 0xF3593CD0 EQ PUSH2 0xFA JUMPI JUMPDEST PUSH0 DUP1 REVERT JUMPDEST PUSH2 0x6C PUSH2 0x118 JUMP JUMPDEST PUSH1 0x40 MLOAD PUSH2 0x79 SWAP2 SWAP1 PUSH2 0x18F JUMP JUMPDEST PUSH1 0x40 MLOAD DUP1 SWAP2 SUB SWAP1 RETURN JUMPDEST PUSH2 0x8A PUSH2 0x11D JUMP JUMPDEST PUSH1 0x40 MLOAD PUSH2 0x97 SWAP2 SWAP1 PUSH2 0x18F JUMP JUMPDEST PUSH1 0x40 MLOAD DUP1 SWAP2 SUB SWAP1 RETURN JUMPDEST PUSH2 0xA8 PUSH2 0x132 JUMP JUMPDEST PUSH1 0x40 MLOAD PUSH2 0xB5 SWAP2 SWAP1 PUSH2 0x18F JUMP JUMPDEST PUSH1 0x40 MLOAD DUP1 SWAP2 SUB SWAP1 RETURN JUMPDEST PUSH2 0xC6 PUSH2 0x138 JUMP JUMPDEST PUSH1 0x40 MLOAD PUSH2 0xD3 SWAP2 SWAP1 PUSH2 0x18F JUMP JUMPDEST PUSH1 0x40 MLOAD DUP1 SWAP2 SUB SWAP1 RETURN JUMPDEST PUSH2 0xE4 PUSH2 0x14D JUMP JUMPDEST PUSH1 0x40 MLOAD PUSH2 0xF1 SWAP2 SWAP1 PUSH2 0x18F JUMP JUMPDEST PUSH1 0x40 MLOAD DUP1 SWAP2 SUB SWAP1 RETURN JUMPDEST PUSH2 0x102 PUSH2 0x162 JUMP JUMPDEST PUSH1 0x40 MLOAD PUSH2 0x10F SWAP2 SWAP1 PUSH2 0x18F JUMP JUMPDEST PUSH1 0x40 MLOAD DUP1 SWAP2 SUB SWAP1 RETURN JUMPDEST PUSH0 SLOAD DUP2 JUMP JUMPDEST PUSH0 PUSH1 0x1 SLOAD PUSH0 SLOAD PUSH2 0x12D SWAP2 SWAP1 PUSH2 0x1D5 JUMP JUMPDEST SWAP1 POP SWAP1 JUMP JUMPDEST PUSH1 0x1 SLOAD DUP2 JUMP JUMPDEST PUSH0 PUSH1 0x1 SLOAD PUSH0 SLOAD PUSH2 0x148 SWAP2 SWAP1 PUSH2 0x235 JUMP JUMPDEST SWAP1 POP SWAP1 JUMP JUMPDEST PUSH0 PUSH1 0x1 SLOAD PUSH0 SLOAD PUSH2 0x15D SWAP2 SWAP1 PUSH2 0x265 JUMP JUMPDEST SWAP1 POP SWAP1 JUMP JUMPDEST PUSH0 PUSH1 0x1 SLOAD PUSH0 SLOAD PUSH2 0x172 SWAP2 SWAP1 PUSH2 0x298 JUMP JUMPDEST SWAP1 POP SWAP1 JUMP JUMPDEST PUSH0 DUP2 SWAP1 POP SWAP2 SWAP1 POP JUMP JUMPDEST PUSH2 0x189 DUP2 PUSH2 0x177 JUMP JUMPDEST DUP3 MSTORE POP POP JUMP JUMPDEST PUSH0 PUSH1 0x20 DUP3 ADD SWAP1 POP PUSH2 0x1A2 PUSH0 DUP4 ADD DUP5 PUSH2 0x180 JUMP JUMPDEST SWAP3 SWAP2 POP POP JUMP JUMPDEST PUSH32 0x4E487B7100000000000000000000000000000000000000000000000000000000 PUSH0 MSTORE PUSH1 0x11 PUSH1 0x4 MSTORE PUSH1 0x24 PUSH0 REVERT JUMPDEST PUSH0 PUSH2 0x1DF DUP3 PUSH2 0x177 JUMP JUMPDEST SWAP2 POP PUSH2 0x1EA DUP4 PUSH2 0x177 JUMP JUMPDEST SWAP3 POP DUP3 DUP3 ADD SWAP1 POP DUP1 DUP3 GT ISZERO PUSH2 0x202 JUMPI PUSH2 0x201 PUSH2 0x1A8 JUMP JUMPDEST JUMPDEST SWAP3 SWAP2 POP POP JUMP JUMPDEST PUSH32 0x4E487B7100000000000000000000000000000000000000000000000000000000 PUSH0 MSTORE PUSH1 0x12 PUSH1 0x4 MSTORE PUSH1 0x24 PUSH0 REVERT JUMPDEST PUSH0 PUSH2 0x23F DUP3 PUSH2 0x177 JUMP JUMPDEST SWAP2 POP PUSH2 0x24A DUP4 PUSH2 0x177 JUMP JUMPDEST SWAP3 POP DUP3 PUSH2 0x25A JUMPI PUSH2 0x259 PUSH2 0x208 JUMP JUMPDEST JUMPDEST DUP3 DUP3 DIV SWAP1 POP SWAP3 SWAP2 POP POP JUMP JUMPDEST PUSH0 PUSH2 0x26F DUP3 PUSH2 0x177 JUMP JUMPDEST SWAP2 POP PUSH2 0x27A DUP4 PUSH2 0x177 JUMP JUMPDEST SWAP3 POP DUP3 DUP3 SUB SWAP1 POP DUP2 DUP2 GT ISZERO PUSH2 0x292 JUMPI PUSH2 0x291 PUSH2 0x1A8 JUMP JUMPDEST JUMPDEST SWAP3 SWAP2 POP POP JUMP JUMPDEST PUSH0 PUSH2 0x2A2 DUP3 PUSH2 0x177 JUMP JUMPDEST SWAP2 POP PUSH2 0x2AD DUP4 PUSH2 0x177 JUMP JUMPDEST SWAP3 POP DUP3 DUP3 MUL PUSH2 0x2BB DUP2 PUSH2 0x177 JUMP JUMPDEST SWAP2 POP DUP3 DUP3 DIV DUP5 EQ DUP4 ISZERO OR PUSH2 0x2D2 JUMPI PUSH2 0x2D1 PUSH2 0x1A8 JUMP JUMPDEST JUMPDEST POP SWAP3 SWAP2 POP POP JUMP INVALID LOG2 PUSH5 0x6970667358 0x22 SLT KECCAK256 PUSH15 0x60C8FD6A261491F5D58653F0CFED4A NUMBER 0xC BLOBHASH 0xAA 0xDC 0xB5 GASPRICE SAR 0xC7 BYTE PUSH10 0xF97376669664736F6C63 NUMBER STOP ADDMOD BYTE STOP CALLER "
		},
		"gasEstimates": {
			"creation": {
				"codeDepositCost": "156600",
				"executionCost": "44411",
				"totalCost": "201011"
			},
			"external": {
				"add()": "infinite",
				"divide()": "infinite",
				"firstNumber()": "2402",
				"multiply()": "infinite",
				"secondNumber()": "2447",
				"sub()": "infinite"
			}
		},
		"methodIdentifiers": {
			"add()": "4f2be91f",
			"divide()": "b53b8d7a",
			"firstNumber()": "2173d6e9",
			"multiply()": "f3593cd0",
			"secondNumber()": "7cc5c136",
			"sub()": "c54124be"
		}
	},
	"abi": [
		{
			"inputs": [],
			"name": "add",
			"outputs": [
				{
					"internalType": "uint256",
					"name": "",
					"type": "uint256"
				}
			],
			"stateMutability": "view",
			"type": "function"
		},
		{
			"inputs": [],
			"name": "divide",
			"outputs": [
				{
					"internalType": "uint256",
					"name": "",
					"type": "uint256"
				}
			],
			"stateMutability": "view",
			"type": "function"
		},
		{
			"inputs": [],
			"name": "firstNumber",
			"outputs": [
				{
					"internalType": "uint256",
					"name": "",
					"type": "uint256"
				}
			],
			"stateMutability": "view",
			"type": "function"
		},
		{
			"inputs": [],
			"name": "multiply",
			"outputs": [
				{
					"internalType": "uint256",
					"name": "",
					"type": "uint256"
				}
			],
			"stateMutability": "view",
			"type": "function"
		},
		{
			"inputs": [],
			"name": "secondNumber",
			"outputs": [
				{
					"internalType": "uint256",
					"name": "",
					"type": "uint256"
				}
			],
			"stateMutability": "view",
			"type": "function"
		},
		{
			"inputs": [],
			"name": "sub",
			"outputs": [
				{
					"internalType": "uint256",
					"name": "",
					"type": "uint256"
				}
			],
			"stateMutability": "view",
			"type": "function"
		}
	]
}